:020000040800F2
:1000000040380020DD010008691D0008B10F00081C
:10001000171C00080F0900086928000800000000EC
:100020000000000000000000000000004501000882
:10003000230A000800000000890100086925000863
:10004000F7010008F7010008F7010008F7010008B0
:10005000F7010008F7010008F7010008F7010008A0
:10006000F7010008F7010008F7010008F701000890
:10007000F7010008F7010008F7010008F701000880
:10008000F7010008F7010008F7010008F701000870
:10009000F7010008F7010008F7010008F701000860
:1000A000F7010008F7010008F7010008F701000850
:1000B000F7010008F7010008F7010008F701000840
:1000C000F7010008F7010008F7010008F701000830
:1000D000F7010008F7010008F7010008F701000820
:1000E000F7010008F7010008F7010008F701000810
:1000F000F7010008F7010008F7010008F701000800
:10010000F7010008F7010008F7010008F7010008EF
:10011000F7010008F7010008F7010008F7010008DF
:10012000F7010008F7010008F7010008F7010008CF
:10013000DFF80CD000F014FB0048004771320008D3
:1001400040380020224B19680868B0E8F00F80F3AF
:100150000988BFF36F8F4FF0000080F311884EF0D5
:100160000D0E70470000000006480068006880F32C
:10017000088862B661B6BFF34F8FBFF36F8F00DFA1
:1001800000BF00BF08ED00E0EFF30980BFF36F8F01
:100190000F4B1A6820E9F00F106008B54FF05000BF
:1001A00080F31188BFF34F8FBFF36F8F03F0F4FF1D
:1001B0004FF0000080F31188BDE808401968086816
:1001C000B0E8F00F80F30988BFF36F8F704700BF6E
:1001D00050000020EFF3058070470000064880477C
:1001E00006480047FEE7FEE7FEE7FEE7FEE7FEE71C
:1001F000FEE7FEE7FEE7FEE77D2500083101000887
:1002000040EA01039B0703D009E008C9121F08C098
:10021000042AFAD203E011F8013B00F8013B521E18
:10022000F9D27047D2B201E000F8012B491EFBD28F
:1002300070470022F6E710B513460A4604461946F1
:10024000FFF7F0FF204610BD034611F8012B00F820
:10025000012B002AF9D11846704730B480EA010218
:1002600002F0004530F0004221F0004013D090B180
:10027000C30DD40DC2F31601C0F31600E41A41F405
:10028000000140F400027D34914201D3641C00E07F
:100290004900002C02DA30BC002070474FF4000007
:1002A0000023914201D3891A034340084FEA4101D8
:1002B000F7D151B1914202D14FF0004105E002D295
:1002C0004FF0010101E06FF0010103EBC45028443D
:1002D00030BC00F056B896230022114600F05AB800
:1002E000002801DBC0F10040002901DBC1F1004121
:1002F0008142704730B50B46014600202022012480
:1003000009E021FA02F59D4205D303FA02F5491BE3
:1003100004FA02F52844151EA2F10102F1DC30BDF9
:100320002DE9F05F0546002092469B46884606462A
:10033000814640241BE0284641464746224600F0BD
:1003400030FA53465A46C01A914110D31146184606
:10035000224600F017FA2D1A67EB01084F46224695
:100360000120002100F00EFA17EB00094E41201E7B
:10037000A4F10104DFDC484631462A464346BDE885
:10038000F09F0029A8BF7047401C490008BF20F01B
:100390000100704710B4B0FA80FC00FA0CF050EA8B
:1003A000010404BF10BC704749B1CCF1200421FA0C
:1003B00004F411FA0CF118BF012121430843A3EB07
:1003C0000C01CB1D4FEA00614FEA102042BF002014
:1003D00010BC704700EBC35010440029A4BF10BCF0
:1003E0007047401C490008BF20F0010010BC704756
:1003F0002DE9FE4F804681EA0300C00F0C460090B5
:1004000021F0004123F00045B8EB0200A94105D2DC
:100410004046214690461C460B46024623F00040CB
:10042000104347D0270DC7F30A00C3F30A510290C7
:10043000401A019040286BDAC3F3130040F4801B8C
:100440000098924620B10023D2EB030A63EB0B0B1A
:1004500001985946C0F14002504600F093F9064613
:100460000D4650465946019A00F0ABF910EB0800D2
:100470006141002487EA115284EAE7731A4340D0AD
:10048000009A62B3019A012A4FEA075215DC001B59
:1004900061EB02014FF0004202EA0752CDE900424F
:1004A000001C41F5801132462B4600F0ABF903B039
:1004B000BDE8F08F40462146F9E7001B61EB0201E1
:1004C000001C41F5801300185B412018A2F50017AD
:1004D00047EB030140EAD570B6196D4111E06D0894
:1004E0004FEA360645EAC0754FEA0752001B61EB3A
:1004F0000201001C41F5801149084FEA3000001943
:10050000514132462B4603B0BDE8F04F00F06BB9C5
:100510000098012240000023D0EB020263EBE0735D
:10052000009821464FEAE074B8EB000061EB04014B
:10053000E9E783F000435BE781F0004158E72DE9EC
:10054000FE4F81EA030404F0004421F000410094CE
:100550004FF0000B23F0004350EA01045ED052EA52
:1005600003045BD0C3F30A54C1F30A552C44A4F22C
:10057000F3340194A0FB0254C1F3130141F4801140
:10058000C3F3130343F4801301FB024400FB034E47
:10059000840A970A44EA815447EA8357A4FB076810
:1005A00002958D0A05FB07854FEA932C04FB0C543A
:1005B0002705029D4FEA065847EA1637B5EB0805AE
:1005C0006EEB070C870E920E47EA811742EA831200
:1005D000A7FB0201B6EB0B0164EB00042B0D43EA11
:1005E0000C335E1844EB1C50DA465146E7FB02011F
:1005F000C5F313044FEA0B3343EA14534FEA0432B2
:10060000019C43EA0603A4F10C040294009CCDE98A
:1006100000B400F0F7F803B0BDE8F08F0020014609
:10062000F9E72DE9F04D81EA030404F0004B21F0D5
:10063000004514464FF0000A23F0004150EA05023D
:1006400020D054EA01021DD0C5F30A570246C5F373
:100650001303C1F31300C1F30A5640F4801543F4A9
:100660008013A7EB0608101BD64608F2FD3873EB83
:10067000050002D308F1010801E092185B41B8F1CE
:10068000000F03DA00200146BDE8F08D00204FF492
:100690008011064684460EE0171B73EB050705D351
:1006A000121B63EB050306434CEA010C49084FEAB1
:1006B000300092185B4150EA0107EDD152EA030085
:1006C00012D082EA040083EA0501084305D0101B1A
:1006D000AB4106D20122002306E000224FF0004386
:1006E00002E06FF0010253101AEB06004CEB0851C8
:1006F00010EB0A0041EB0B01BDE8F04D00F073B8C0
:10070000C1F30A52C1F3130140F2FF3341F48011E7
:100710009A4202DA00200146704740F233439A427F
:10072000A2F2334202DC524200F03BB800F02AB899
:1007300030B5041E71F1000404DB4FF00044404268
:1007400064EB0101141E73F1000405DB1C464FF03D
:100750000043524263EB0403994208BF904230BD0C
:10076000064C074D06E0E06840F0010394E80700FE
:1007700098471034AC42F6D3FFF7DEFC582201084C
:1007800078220108202A04DB203A00FA02F1002036
:1007900070479140C2F1200320FA03F319439040BF
:1007A0007047202A04DB203A21FA02F0002170472A
:1007B00021FA02F3D040C2F12002914008431946C9
:1007C0007047202A06DBCB17203A41FA02F043EAB1
:1007D000E07306E041FA02F3D040C2F120029140FA
:1007E00008431946704710B5141E73F1000408DA67
:1007F000401C41F1000192185B411A4301D120F0E5
:10080000010010BD2DE9F04D92469B4611B1B1FAA1
:1008100081F202E0B0FA80F220329046FFF7B2FF98
:1008200004460F4640EA0A0041EA0B0153465A4685
:10083000084313D0114653EA010019D0C8F1400211
:100840005046FFF7AEFF05460E4650465946424613
:10085000FFF798FF084305D0012004E02046394601
:10086000BDE8F08D0020054346EAE0762C4337438F
:100870000A986305E40AA0EB08000022FD0A44EA96
:1008800047540A3002D500200146E9E70105101956
:100890006941DDE9084500196941BDE8F04DA2E76D
:1008A00070B58C1810F8015B15F0070301D110F832
:1008B000013B2A1106D110F8012B03E010F8016B5F
:1008C00001F8016B5B1EF9D12B0705D40023521EE2
:1008D0000DD401F8013BFAE710F8013BCB1A921C4A
:1008E00003E013F8015B01F8015B521EF9D5A14248
:1008F000D8D3002070BD014601F00F00091101F0AE
:100900000F0101EB810251004218D0B2704700BFC5
:10091000FEE72DE9F04705460E4617469A46DDE903
:100920000989089C062000F046F828702878FFF70F
:10093000E2FF2870052000F03EF830703078FFF7B5
:10094000DAFF3070042000F036F838703878FFF79E
:10095000D2FF3870032000F02EF88AF80000022041
:1009600000F029F82070207800F03F0020702078F7
:10097000FFF7C1FF2070012000F01DF888F800008B
:1009800098F80000FFF7B7FF88F80000002000F09B
:1009900012F889F8000099F80000FFF7ACFF89F819
:1009A0000000BDE8F08710B501F038F91C210E20D9
:1009B00000F020F810BD70B5044601F09FF9D0207A
:1009C00001F087F901F050F9204601F082F901F0B9
:1009D0004BF901F093F9D12001F07BF901F044F9D2
:1009E00001F051F90546012001F067F901F094F991
:1009F000284670BD70B505460C4601F07FF9D02041
:100A000001F067F901F030F9284601F062F901F0D0
:100A10002BF9204601F05DF901F026F901F07CF98F
:100A200070BD704770B504464FF47A7060434FF460
:100A30007A71B0FBF1F5284603F0D8F970BD0021BA
:100A400001E000BF491C8142FBD3704710B504464A
:100A5000052C21D1F0231A460021084600F0FCFCA9
:100A6000002000F03FFE6FF07F4000F027FE0BA259
:100A70000A21084600F03AFC0AA232210A2000F0BE
:100A800035FC0AA2DC21052000F030FC09A2DC21A3
:100A9000B42000F02BFC00E000BF10BD4461746581
:100AA0003A00000054696D653A0000004D454E550E
:100AB000000000005345540000BF00F0A1FE0020DC
:100AC00001F042FC8CE003F077F846A001F0CEFE86
:100AD00003F084F800235A1E19464748006803F0C3
:100AE000EDFB00F085FA044600231A4619464248F9
:100AF000006803F0D1FCA4F1310008286AD2DFE8D5
:100B000000F0580454693D6969203CA001F0AEFE34
:100B100000F004FB3B48007808B9032002E03948A4
:100B20000078401E374908700846017836A001F069
:100B30009DFE3448007801F007FCC82003F056F908
:100B400049E032A001F092FE00F0E8FA2D4800786A
:100B5000032801D1002002E02A480078401C2949DE
:100B600008700846017828A001F080FE254800782A
:100B700001F0EAFBC82003F039F92CE026A001F0CF
:100B800075FE2048007818B11E480078401E00E02D
:100B900001201C490870084601781BA001F066FE80
:100BA0001848007801F0D0FB15E01EA001F05EFEB1
:100BB00000BF1EA001F05AFE00F0B0FA00201F494D
:100BC00008701F48006803F0FFF91E48006803F032
:100BD0007DFA00E000BF00BF642003F007F900BF0A
:100BE00071E700004D656E752069732072756E6E39
:100BF000696E670D0A0000002001002055707761C2
:100C000072640A003C01002025640A00446F776E7C
:100C1000776172640A000000636F6E6669726D0A24
:100C200000000000457869740A00000054696D6591
:100C30005F446973706C61790A000000350100201F
:100C40002C0100203001002000204449087083E07E
:100C500002F0B2FF42A001F009FE02F0BFFF3F48E0
:100C6000007818BB00F0CCFD00F058FA01203B4999
:100C700008700520FFF7EAFE3E480078B0B13EA2BA
:100C8000DC21782000F032FB00235A1E19463B4835
:100C9000006803F013FB03F0F9FC394908600023F6
:100CA0001A4619463548006803F0F6FB35480078C7
:100CB000A0B103F0EBFC32490968401A47F2305109
:100CC00088420BD300F084FD2FA001F0CFFD00205F
:100CD0002C4908702F48006803F0F8F900235A1EC9
:100CE00019462648006803F0E9FA00F081F9044645
:100CF00000231A4619462148006803F0CDFB342C26
:100D000016D125A001F0B2FD2848006802F068FA6B
:100D1000032807D12548006803F056F9002003F0A6
:100D2000D5F902E022A001F0A1FDC82003F05EF891
:100D300000235A1E19462848006803F0BFFA01F044
:100D400051F900231A4619462348006803F0A4FB12
:100D5000642003F04BF800BF7AE700003501002063
:100D6000526F6F742069732072756E6E696E670DB5
:100D70000A00000036010020410000002001002090
:100D8000380100203401002054696D656F75740DC1
:100D90000A0000002C0100204D656E75204B65791E
:100DA00020507265737365640A00000030010020F2
:100DB0004572726F723A204D656E755F5461736B48
:100DC00020697320616C72656164792072756E6E42
:100DD000696E67210A000000140100202DE9F0412E
:100DE000024600250026002000230024002791F859
:100DF00003C00CF00F0591F803C00CF0100CBCF10F
:100E0000000F03D091F802C04CEA050591F800C02C
:100E1000BCF1000F31D0146800202BE04FF0010C22
:100E20000CFA00F3B1F800C00CEA03069E4220D190
:100E300083004FF00F0C0CFA03F7BC4305FA03FCD8
:100E40004CEA040491F803C0BCF1280F06D14FF01E
:100E5000010C0CFA00FCC2F814C00AE091F803C0BF
:100E6000BCF1480F05D14FF0010C0CFA00FCC2F8A0
:100E700010C0401C0828D1D31460B1F800C0BCF1E8
:100E8000FF0F34DD546800202EE000F1080C4FF015
:100E9000010808FA0CF3B1F800C00CEA03069E4200
:100EA00021D183004FF00F0C0CFA03F7BC4305FA75
:100EB00003FC4CEA040491F803C0BCF1280F05D1EF
:100EC00000F1080C08FA0CF8C2F8148091F803C07D
:100ED000BCF1480F07D100F1080C4FF0010808FAE7
:100EE0000CF8C2F81080401C0828CED35460BDE82E
:100EF000F0810000F0B50A460023002400210025FF
:100F000000F00046B6F1004F02D11D4EF16901E03C
:100F10001B4E7168C0F3034583B200F44016B6F56A
:100F2000401F08D121F07061154E766826F070667A
:100F3000134F7E6012E000F48016B6F5801F06D1D4
:100F4000032606FA05F4A14341F0706106E0460D60
:100F5000360103FA06F6B14341F0706122B1460D45
:100F6000360103FA06F6314300F00046B6F1004FB1
:100F700002D1034EF16101E0014E7160F0BD00004D
:100F8000000001400246002093680B400BB1012095
:100F900000E00020704741617047016170470AB16D
:100FA000016100E04161704710B503F06FFB10BDB7
:100FB00000BFFEE708B50F20ADF8000010208DF847
:100FC000030003208DF8020069460848FFF706FF7A
:100FD000F020ADF8000048208DF8030003208DF8C4
:100FE000020069460148FFF7F9FE08BD0014014000
:100FF00070B50025002601F0BFFA002453E024B1AB
:1010000008214248FFF7C9FF03E008213F48FFF7E6
:10101000C2FF012C04D004213C48FFF7BEFF03E0CF
:1010200004213A48FFF7B7FF022C04D002213748C9
:10103000FFF7B3FF03E002213448FFF7ACFF032CB6
:1010400004D001213148FFF7A8FF03E001212F4818
:10105000FFF7A1FF20212D48FFF794FF18B90120C9
:1010600000EB8400C5B210212848FFF78BFF18B9A8
:10107000022000EB8400C5B240212448FFF782FF24
:1010800018B9032000EB8400C5B280211F48FFF788
:1010900079FF18B9042000EB8400C5B20120FFF7E6
:1010A000C1FC601CC4B2042CA9DB0F211748FFF758
:1010B00074FF35B31648007885421BD1FFF774FFE3
:1010C00014490968401A14281ED9691ECA1701EB71
:1010D00092729210104B03EB8203681EC21700EB52
:1010E00092729210A0EB82029E5CFFF75DFF0949AD
:1010F000086009E006480570FFF756FF05490860DB
:1011000002E0002002490870304670BD0014014022
:101110008C00002090000020A449000810B52C4845
:101120008089401E83B22A484089401E82B2002135
:10113000084600F07DFA274800884FF6BF71084046
:10114000244908800846008840F40060088008466A
:10115000008840F040000880C8141F49086000243F
:101160000DE01B4880881B490C31088000BF1948DE
:101170000830008800F002000028F8D0641C1448F1
:101180004089134989894843A042EAD800BF1148E1
:101190000830008800F080000028F8D14FF400608B
:1011A0000D49091F08600B4800884FF6BF710840C1
:1011B00008490880084600884FF2FF710840054939
:1011C00008800846008840F04000088010BD0000FC
:1011D0002C340020003C00401414014008B50DE000
:1011E0000021009104E0BDF80010491C89B2009173
:1011F000BDF8001041F288329142F4DB011EA0F1EB
:101200000100EDD108BD00002DE9F05F07468846DA
:1012100014460025A9460026AA46A4F12000C4B21F
:101220004FF400602D49086000BF34E02C4800688E
:1012300000682B490968098904FB015110F801B0C5
:101240004FF0000921E00BF0010028B1254800888B
:10125000254921F8160004E022488088224921F817
:1012600016004FEA6B0B701C86B20AF101001FFAE0
:1012700080FA1B4800688088504502D14FF0000A70
:1012800006E009F101001FFA80F9B9F1080FDADB75
:1012900000BF681C85B2124800680089A842C5DCFE
:1012A0000F480068C0884044401E83B20C48006864
:1012B00080883844401E82B24146384600F0B8F972
:1012C000074800688088064A1268D288504381B275
:1012D000054800F0B1FABDE8F09F00001414014089
:1012E0000C0100202C3400202C2C002070B5054669
:1012F0000E4614460AE0227831462846FFF784FF5E
:10130000064800688088284485B2641C04484089E7
:10131000A84202DD20780028EDD170BD0C0100202C
:101320002C3400202DE9F04F87B005460F461446B7
:1013300098460595B9460026002004900390824601
:1013400083464FF48060B0FBF8FB00BF7AE00020DA
:10135000049034E01098007806900020039023E079
:10136000069800F0010028B139480088394921F871
:101370001A0004E036488088364921F81A00069899
:10138000401006900598401C80B205900AF10100BB
:101390001FFA80FA0598401BA04201D1059506E08E
:1013A0000398401C80B2039003980828D8DB00BF44
:1013B0001098401C10900498401C80B20490204665
:1013C000FEF789FF4FF082410090FEF746FF029042
:1013D0000498FEF780FF01900299FEF781FFB9D3D0
:1013E0000BFB04F0504516D14FF0000A09EB0B003F
:1013F000401E83B22819401E82B24946284600F09A
:1014000017F904FB0BF081B2124800F015FA09EB52
:101410000B001FFA80F9701C404511D1F01983B2FE
:101420002819401E82B24946284600F001F9701C76
:101430003844A0EB0900604381B2064800F0FCF993
:10144000701C86B2464582DB07B0BDE8F08F000015
:101450002C3400202C2C00202DE9F04106460F46AC
:1014600014461D467819401E83B23019401E82B2C0
:101470003946304600F0DCF8264800884FF6BF7148
:101480000840244908800846008840F4006008802D
:101490000846008840F040000880C8141E490860D3
:1014A0004FF0000810E01D4800881A490C310880F0
:1014B00000BF18480830008800F002000028F8D06B
:1014C00008F101001FFA80F804FB05F04045EADC52
:1014D00000BF10480830008800F080000028F8D1D4
:1014E0004FF400600C49091F08600A4800884FF655
:1014F000BF71084007490880084600884FF2FF7115
:101500000840044908800846008840F040000880F0
:10151000BDE8F081003C0040141401402C34002050
:1015200008B50121282000F085FC0121084600F0C3
:1015300081FC01212348FFF7DDFC01212248FFF750
:10154000D9FC18208DF8030003208DF80200082034
:10155000ADF8000069461D48FFF740FC2020ADF8BB
:10156000000069461948FFF739FC10208DF8030088
:1015700003208DF802004FF40060ADF800006946CA
:101580001348FFF72BFC4FF48050ADF8000069467C
:101590000F48FFF723FC4FF40050ADF800006946F8
:1015A0000B48FFF71BFC4FF480510948FFF7F5FC8F
:1015B0004FF4006006491031086081000448FFF7CD
:1015C000EAFC08BD0002300000112000000C0140C0
:1015D0000014014000B585B00121C80300F01AFCD9
:1015E0004FF44040ADF800004FF48270ADF80200B7
:1015F0000020ADF80400ADF80600ADF808004FF487
:101600000070ADF80A000020ADF80C00ADF80E0037
:101610000720ADF810006946044800F08FFD012155
:10162000024800F07FFD05B000BD0000003C004016
:101630002DE9F04104460D4616461F464FF4006062
:10164000184908602A2000F045F91749897B214490
:1016500088B200F069F91449897B314488B200F0FE
:1016600063F92B2000F036F90F49C97B294488B271
:1016700000F05AF90C49C97B394488B200F054F99A
:101680002C2000F027F900BF0848008800F08000F7
:101690000028F9D14FF400600249091F0860BDE835
:1016A000F0810000141401402C340020083C00405C
:1016B00001490860704700000C01002030B500238C
:1016C0000021002200F47804230A00F47C4461091C
:1016D000C0F3C40243EA01041443014D6C6030BD01
:1016E0002C34002030B500230021002200F47804BF
:1016F000230A00F47C446109C0F3C40243EA0104F4
:101700001443014D2C6030BD2C34002010B504462C
:10171000294844724FF40060284908606CB93620AB
:1017200000F0D8F8702000F017F9002022498873E3
:10173000C873F0204881888130E0022C0DD136201A
:1017400000F0C8F8002000F007F900201A4988735B
:10175000C873F0204881888120E0012C0ED136200A
:1017600000F0B8F8A02000F0F7F850201249887374
:101770000020C873F020488188810FE0032C0DD130
:10178000362000F0A7F8C02000F0E6F800200A4953
:1017900088735020C873F0204881888100BF0848B2
:1017A000008800F080000028F9D14FF40060034960
:1017B000091F086010BD00002C34002014140140E3
:1017C000083C004001490872704700002C3400209A
:1017D00010B54FF4006009490860810007481438CB
:1017E000FFF7D9FB282000F075F8102000F072F800
:1017F0004FF400600149091F086010BD1414014036
:1018000010B54FF400600B490860112000F062F839
:101810007820FFF7E3FC292000F05CF84FF400513A
:1018200004481438FFF7B9FB4FF400600149091F61
:10183000086010BD1414014010B50246234B1B88EC
:101840004FF6BF742340214C238023461B8843F46A
:101850000063238023461B8843F040032380E31466
:101860001B4C236000200DE032F81030174C0C3474
:10187000238000BF154B08331B8803F00203002BA5
:10188000F8D0401C8842EFD300BF104B08331B88B0
:1018900003F08003002BF8D14FF400630C4C241F9D
:1018A00023600A4B1B884FF6BF742340074C2380EC
:1018B00023461B884FF2FF742340044C23802346A9
:1018C0001B8843F04003238010BD0000003C004013
:1018D0001414014010B5044600BF1148008800F000
:1018E00080000028F9D14FF480510E48FFF753FBD8
:1018F0000B48001D048000BF0948008800F002006A
:101900000028F9D000BF0648008800F080000028B9
:10191000F9D14FF480510348FFF73FFB10BD0000A1
:10192000083C00400014014001120A4A118000BF27
:101930000849091F098801F002010029F8D005496A
:10194000088000BF0349091F098801F0020100292E
:10195000F8D070470C3C00400549088000BF04499E
:10196000091F098801F002010029F8D07047000022
:101970000C3C00402DE9F05F06460F469046994624
:10198000DDE90AAB3B2000F091F804463C2000F072
:101990008DF8054645EA042000B230803D2000F075
:1019A00085F804463E2000F081F8054645EA04200B
:1019B00000B238803F2000F079F80446402000F063
:1019C00075F8054645EA042000B2A8F80000432057
:1019D00000F06CF80446442000F068F8054645EA3B
:1019E000042000B2A9F80000452000F05FF804468A
:1019F000462000F05BF8054645EA042000B2AAF84C
:101A00000000472000F052F80446482000F04EF84D
:101A1000054645EA042000B2ABF80000BDE8F09F9F
:101A200008B50121042000F005FA14208DF8030008
:101A30004FF4C050ADF8000003208DF80200694655
:101A40000448FFF7CBF94FF4C0510248FFF7A5FA5D
:101A500008BD00000008014010B5FFF7E1FF0121BB
:101A60006B2000F0C1F800216C2000F0BDF80921C6
:101A7000192000F0B9F806211A2000F0B5F8182155
:101A80001B2000F0B1F818211C2000F0ADF810BDAB
:101A900010B54FF400610448FFF774FA04460A20B9
:101AA000FEF7CDFF204610BD0008014070B504468A
:101AB00000F065F8D02000F04DF800F016F8204650
:101AC00000F048F800F011F800F059F8D12000F0CB
:101AD00041F800F00AF800F017F80546012000F080
:101AE0002DF800F05AF8284670BD10B5012000F01E
:101AF0006DF8012000F05CF8FFF7CAFF04460020F3
:101B000000F056F8204610BD70B50025012000F009
:101B10005DF800240EE0012000F04AF8FFF7B8FF5E
:101B2000012802D1802020410543002000F040F828
:101B3000601CC4B2082CEEDB284670BD10B504460C
:101B4000204600F043F8012000F032F8002000F0B9
:101B50002FF810BD70B5054600240DE0802121410D
:101B600001EA050000F032F8012000F021F8002021
:101B700000F01EF8601CC4B2082CEFDB70BD10B57D
:101B8000012000F023F8012000F012F8002000F0FE
:101B90001DF8002000F00CF810BD10B5002000F07A
:101BA00015F8012000F004F8012000F00FF810BD36
:101BB00010B5044622464FF480510348FFF7EFF971
:101BC0000A20FEF73CFF10BD0008014010B5044696
:101BD00022464FF400610348FFF7E1F90A20FEF7BF
:101BE0002EFF10BD0008014070B505460C46FFF7FA
:101BF000C6FFD020FFF7AEFFFFF777FF2846FFF7BD
:101C0000A9FFFFF772FF2046FFF7A4FFFFF76DFF64
:101C1000FFF7C3FF70BD00BFFEE7000008B501215C
:101C2000042000F007F914208DF803000320ADF81C
:101C300000008DF8020069460348FFF7CFF8032142
:101C40000148FFF7AAF908BD0008014010B50121BD
:101C50000448FFF797F904460A20FEF7F0FE2046F5
:101C600010BD00000008014010B5012000F06EF822
:101C7000012000F05DF8FFF7E9FF0446002000F0C6
:101C800057F8204610BD70B50025012000F05EF821
:101C900000240EE0012000F04BF8FFF7D7FF0128E9
:101CA00002D1802020410543002000F041F8601C53
:101CB000C4B2082CEEDB284670BD10B504462046A1
:101CC00000F044F8012000F033F8002000F030F874
:101CD00010BD70B5054600240DE08021214101EAC8
:101CE000050000F033F8012000F022F8002000F099
:101CF0001FF8601CC4B2082CEFDB70BD10B50120CA
:101D000000F024F8012000F013F8002000F01EF885
:101D1000002000F00DF810BD10B5002000F016F8FE
:101D2000012000F005F8012000F010F810BD0000BF
:101D300010B50446224602210348FFF730F90A2075
:101D4000FEF77DFE10BD00000008014010B50446FE
:101D5000224601210348FFF722F90A20FEF76FFE11
:101D600010BD000000080140704708B54FF4A060A6
:101D700000F046F825208DF8000001208DF80100C4
:101D80008DF802008DF80300684600F001F808BDE8
:101D900070B5002100230F22C47804B3154C2468C9
:101DA00004F4E064C4F5E064210AC1F10403CA400C
:101DB000447804FA03F184781440214309010E4C5D
:101DC0000678A155047804F01F050124AC4005787D
:101DD0006D11AD0005F1E025C5F8004109E004787A
:101DE00004F01F050124AC40044D0678761145F837
:101DF000264070BD0CED00E000E400E080E100E072
:101E000002490143024A1160704700000000FA05D0
:101E10000CED00E029B1064AD2690243044BDA61B5
:101E200004E0034AD2698243014BDA617047000043
:101E30000010024029B1064A92690243044B9A619C
:101E400004E0034A92698243014B9A6170470000A3
:101E50000010024030B500210022002400232D4D47
:101E60006D6805F00C0121B1042905D0082923D1A2
:101E700005E0294D056022E0274D05601FE0254D56
:101E80006D6805F47012234D6D6805F480340225E9
:101E900005EB92421CB9214D554305600BE01D4DE9
:101EA0006D6805F400351DB11C4D5543056002E019
:101EB000194D5543056002E0174D056000BF00BF96
:101EC000144D6D6805F0F0010909154D6B5C05684E
:101ED000DD4045600F4D6D6805F4E061090A104D65
:101EE0006B5C4568DD4085600A4D6D6805F46051A6
:101EF000C90A0B4D6B5C4568DD40C560054D6D68DA
:101F000005F44041890B074D6B5CC568B5FBF3F5E3
:101F1000056130BD0010024000127A0000093D004A
:101F2000140000202400002088B045E001F044FEA9
:101F300022A000F09BFC01F051FE00230A2219466A
:101F40002348006802F0BAF902A803A904AB05AA65
:101F5000CDE9001006A907A8FFF70CFD00231A46DB
:101F600019461B48006802F097FA1A480078F8B939
:101F7000BDF91400B0F5C86F1ADAFFF741FC012073
:101F8000144908701448006802F01EF800235A1E15
:101F900019461248006802F091F902F077FB1049E7
:101FA000086000231A4619460C48006802F074FACB
:101FB0004FF4FA7001F01AFFB8E700004779726F2A
:101FC0002069732072756E6E696E670D0A000000DD
:101FD0001C010020340100202C01002020010020E1
:101FE0003801002000B597B010A811A912AA13ABB0
:101FF000CDE90021029014AA15A916A8FEF789FCC4
:102000009DF84C00072828D2DFE800F004090E13E1
:10201000181D220032A103A8FEF716F922E031A113
:1020200003A8FEF711F91DE02FA103A8FEF70CF994
:1020300018E02EA103A8FEF707F913E02CA103A8CE
:10204000FEF702F90EE02BA103A8FEF7FDF809E068
:1020500029A103A8FEF7F8F804E028A103A8FEF7D9
:10206000F3F800BF00BF9DF850009DF85410CDE973
:1020700000109DF8580000F5FA6321A214210BA866
:1020800000F004FC9DF840009DF84410CDE90010DC
:102090009DF848301EA2142106A800F0F7FB03AB00
:1020A0001FA20A2103A800F0F1FB0020FFF71AFB92
:1020B0006FF07F40FFF702FB0BAA0A214620FFF7D3
:1020C00015F906AA32214620FFF710F903AA5A2172
:1020D0000A20FFF70BF9142001F088FE17B000BDAD
:1020E0004D6F6E0054756500576564005468750047
:1020F000467269005361740053756E004572720038
:10210000253034642F253032642F253032640000AE
:10211000253032643A253032643A2530326400008A
:102120002573000021B1028842F04002028004E0E1
:1021300002884FF6BF731A400280704710B5002224
:10214000028802F441520B884C8823438C88234335
:10215000CC8823430C8923434C8923438C89234314
:10216000CC8923431A430280838B4FF2FF742340B0
:1021700083830B8A038210BD10B5FFF7D1F9FFF7F7
:1021800029FA0520FFF72AF84FF400606B49086030
:102190003620FFF79FFB0020FFF7DEFB3A20FFF71A
:1021A00099FB0520FFF7D8FBB220FFF793FB0C202B
:1021B000FFF7D2FB0C20FFF7CFFB0020FFF7CCFB93
:1021C0003320FFF7C9FB3320FFF7C6FBB720FFF72B
:1021D00081FB3520FFF7C0FBBB20FFF77BFB1920FD
:1021E000FFF7BAFBC020FFF775FB2C20FFF7B4FB0D
:1021F000C220FFF76FFB0120FFF7AEFBC320FFF704
:1022000069FB1220FFF7A8FBC420FFF763FB202027
:10221000FFF7A2FBC620FFF75DFB0F20FFF79CFB3B
:10222000D020FFF757FBA420FFF796FBA120FFF774
:1022300093FBE020FFF74EFBD020FFF78DFB04203F
:10224000FFF78AFB0D20FFF787FB1120FFF784FBC8
:102250001320FFF781FB2B20FFF77EFB3F20FFF7CA
:102260007BFB5420FFF778FB4C20FFF775FB182011
:10227000FFF772FB0D20FFF76FFB0B20FFF76CFBE6
:102280001F20FFF769FB2320FFF766FBE120FFF724
:1022900021FBD020FFF760FB0420FFF75DFB0C2043
:1022A000FFF75AFB1120FFF757FB1320FFF754FBF2
:1022B0002C20FFF751FB3F20FFF74EFB4420FFF798
:1022C0004BFB5120FFF748FB2F20FFF745FB1F205A
:1022D000FFF742FB1F20FFF73FFB2020FFF73CFBEF
:1022E0002320FFF739FB2120FFF7F4FA1120FFF735
:1022F000F1FA7820FEF772FF2920FFF7EBFA00BF12
:102300000F48008800F080000028F9D14FF40060E9
:102310000A49091F08600220FFF7F8F90020FFF7BB
:10232000CDF96FF07F40FFF7DDF9FEF7F7FE0548C6
:10233000FFF7BEF90020FFF745FA10BD1414014065
:10234000083C0040DC00002038B504460020FFF7C0
:10235000C9F96FF07F40FFF7B1F934B1012C0DD00E
:10236000022C14D0032C24D11AE01348F0231A466F
:10237000002100900846FEF7D5FF1AE00F48F02331
:102380001A46002100900846FEF7CCFF11E00C48E9
:10239000F0231A46002100900846FEF7C3FF08E02C
:1023A0000848F0231A46002100900846FEF7BAFFBD
:1023B00000BF00BF38BD0000D8B10008F8CD00084C
:1023C0003806010818EA000810B500F001F810BD41
:1023D0000CB50020019000903348006840F4803034
:1023E0003149086000BF3048006800F400300090B8
:1023F0000198401C0190009818B90198B0F5A06FA1
:10240000F1D12948006800F4003010B1012000909B
:1024100001E0002000900098012843D12348006883
:1024200040F01000214908600846006820F00300D1
:1024300008600846006840F0020008601A484068DA
:10244000194948600846406848600846406840F4BA
:10245000806048600846406820F47C104860084668
:10246000406840F4E81048600846006840F080701A
:10247000086000BF0C48006800F000700028F9D028
:102480000948406820F00300074948600846406852
:1024900040F00200486000BF0348406800F00C00B4
:1024A0000828F9D10CBD00000010024000200240B5
:1024B0001CB504461848012100230A02CDE900108A
:1024C00016A1194802F0A2F81848032100234FF47E
:1024D0008072CDE9001016A1184802F097F818484C
:1024E000012100234A02CDE9001016A1184802F08C
:1024F0008DF8184802210023CA01CDE9001016A169
:10250000184802F083F80E48006801F0DFFD002053
:1025100001F086FC1CBD00002401002054696D659B
:102520005F5461736B000000DD2500082C01002062
:10253000526F6F745F5461736B000000490C0008A8
:10254000300100204D656E755F5461736B000000B3
:10255000B90A0008280100204779726F5F5461733F
:102560006B000000291F000810B502F07FF8012859
:1025700001D001F05BFE10BD7047000010B513489C
:10258000006840F0010011490860084640681049A1
:1025900008400E494860084600680E4908400B494B
:1025A00008600846006820F48020086008464068FB
:1025B00020F4FE0048604FF41F008860FFF704FF1E
:1025C0004FF000600449086010BD00000010024098
:1025D0000000FFF8FFFFF6FE08ED00E08AB0FEF70E
:1025E000E2F929E001F0E8FA14A000F03FF901F067
:1025F000F5FA00230A2219461648006801F05EFE2B
:10260000012813D103A804A905AA06ABCDE900212E
:10261000029007AA08A909A8FEF77BF900231A4629
:1026200019460C48006801F037FF02E00AA000F0EC
:102630001DF9642001F0DAFBD4E7000054696D65F0
:102640005570646174652069732072756E6E696E71
:10265000670D0A00140100204661696C65642074EE
:102660006F2074616B652054696D655F5369676E97
:10267000616C48616E646C65210A000021B1828939
:1026800042F40052828104E082894DF6FF731A40C1
:102690008281704700B585B001210420FFF7CAFB95
:1026A00001218803FFF7C6FB4FF40070ADF810005E
:1026B00018208DF8130003208DF8120004A9174884
:1026C000FEF78CFB4FF48060ADF8100004208DF80D
:1026D000130004A91148FEF781FB4FF41650009037
:1026E0000020ADF80400ADF80600ADF80800ADF824
:1026F0000C000C20ADF80A006946094800F044F8C7
:10270000FFF733FB012240F22551054800F017F88E
:1027100001210348FFF7B2FF05B000BD00080140EA
:102720000038014002460020B1F5007F00D100BF13
:1027300013880B400BB1012000E000207047F0B57A
:102740000346002400260025002040F66A17B942FF
:1027500000D100BF1846C1F3421401F01F06012743
:1027600007FA06F5012C01D10C3004E0022C01D14E
:10277000103000E014301AB107682F43076002E000
:102780000768AF430760F0BD2DE9F04786B0054606
:102790000E460024A24600BFA1460027B08900B122
:1027A00000BF2F462C8A4CF6FF700440F08804438B
:1027B0002C82AC894EF6F3100440B088318908436E
:1027C000718908430443AC81AC8A4FF6FF40044052
:1027D000B0890443AC8201A8FFF73CFB1F48874245
:1027E00002D1DDF810A001E0DDF80CA0A88900F40A
:1027F000004040B10AEBCA0000EB0A103168490002
:10280000B0FBF1F807E00AEBCA0000EB0A103168F0
:102810008900B0FBF1F86420B8FBF0F00401200956
:10282000642101FB1089A88900F4004040B13220E6
:1028300000EBC900B0FBF1F000F00700044308E032
:10284000322000EB09106421B0FBF1F000F00F0022
:1028500004432C8106B0BDE8F08700000038014039
:10286000C1F308028280704700BFFEE70FB4054B3A
:1028700010B503A9044A029800F0F2F810BC5DF804
:1028800014FB00004D320008440100200FB41CB5B9
:102890000246002007AC00290BD0491ECDE90021DB
:1028A000054B6A462146069800F0DAF8009A0021A6
:1028B00011701CBC5DF814FB8F31000802E008C8E1
:1028C000121F08C1002AFAD170477047002001E0AA
:1028D00001C1121F002AFBD1704700002DE9FF5FE4
:1028E00082B00021DDE90430020DDDF840B0034381
:1028F00018D044F61050A2F2FF324243151411983A
:1029000001281FD0A5EB0B00401C5FEA000A4FF026
:1029100000064E4FDFF83891B046504615D5CAF143
:10292000000413E0119801244AA3012801D16FEAA1
:102930000B010298119AC0E90031C0E9024206B0C9
:10294000BDE8F09FCBF10000DFE704460021404ADC
:10295000491842EB0450CDE9001012E0E00707D01F
:1029600032463B4640464946FDF7E9FD80468946EA
:1029700032463B4610461946FDF7E1FD06460F4636
:102980006410002CEAD1DDE90401DDE90023BAF18D
:10299000000F06DAFDF7D3FD42464B46FDF7CFFDAB
:1029A00005E0FDF73EFE42464B46FDF73AFE044683
:1029B0000E460022284BFDF7BBFE03D84FF0FF3038
:1029C000014607E00022254B20463146FDF710FD69
:1029D000FDF796FE102409E0002C0ADB0A220023F2
:1029E000FDF79EFC039B30321A55641E50EA01022B
:1029F000F2D1641C039AC4F111031444119A012A00
:102A000003D0012208430DD10AE0084304D000207E
:102A10004FF0110B119072E7A3EB0B056D1E0DE04B
:102A20005B4504DD4FF0000205F1010504E003DA27
:102A30004FF00002A5F10105002AECD0029811998F
:102A4000C0E90231C0E9004579E700000000144008
:102A50000000F03F300000000000F0430000E03FC5
:102A60002DE9FF4F95B09B468946064600250FE2AB
:102A7000252877D100242746F84A0121059400E053
:102A8000044316F8013F203B01FA03F01042F7D14E
:102A900030782A2811D06FF02F033078A0F130025F
:102AA000092A16D8059A44F0020402EB820203EBCD
:102AB00042021044761C0590EFE759F8042B05926A
:102AC000002A03DA504244F40054059044F0020412
:102AD000761C30782E2816D116F8010F44F0040425
:102AE0002A280DD06FF02F023078A0F13003092B87
:102AF00009D807EB870302EB4303C718761CF3E7FB
:102B000059F8047B761C30786C280FD006DC4C28F2
:102B100017D068280DD06A2814D104E0742810D08A
:102B20007A280FD10DE044F400140AE044F4801434
:102B300001E044F440147278824202D104F580141A
:102B4000761C761C307866280BD013DC582877D09A
:102B500009DC002875D04528F6D04628F4D047284F
:102B60001AD19DE118E0632835D0642879D0652812
:102B700012D195E1702873D008DC6728F1D069285C
:102B80006FD06E280DD06F2806D1B5E073282CD0F9
:102B9000752875D0782874D05A46179990476D1CBF
:102BA00075E1C4F30250022809D003280DD0D9F8EA
:102BB000001004280DD00D6009F1040967E1D9F86F
:102BC0000010EA17C1E90052F6E7D9F800100D80AD
:102BD000F2E70D70F0E719F8041B8DF800100020E3
:102BE0008DF80100EA46012003E059F804AB4FF0EC
:102BF000FF3061074FF0000102D40DE008F1010140
:102C00008846B9420FDA8045F8DB1AF80810002927
:102C1000F4D108E008F1010188468142FADB1AF894
:102C200008100029F6D105985B46A0EB080721465D
:102C30003846179A00F094FA284400EB080507E09C
:102C40004DE029E10DE01AF8010B5A46179990471B
:102C5000B8F10108F7D25B4621463846179A13E1CE
:102C600042E00A220092C4F302524FF0000A022A04
:102C700008D059F804CB032A4FEAEC710AD00DE0D2
:102C800029E02AE009F1070121F00702F2E802C178
:102C9000914609E00FFA8CFC4FEAEC71042A03D14B
:102CA0004FFA8CFC4FEAEC71002907DA0A46002142
:102CB000DCF1000C61EB02012D2202E0220504D5BB
:102CC0002B228DF80420012203E0E20701D020220C
:102CD000F7E7904659E00A2102E010220DE01021AA
:102CE0004FF0000A00910BE010224FF0000A44F070
:102CF00004040827009203E008224FF0000A009223
:102D0000C4F30252022A05D059F804CB0021032A49
:102D100008D009E009F1070121F00702F2E802C139
:102D2000914605E01FFA8CFC042A01D10CF0FF0C3F
:102D30004FF00008220728D5702806D0009B83F0AA
:102D4000100353EA0A0305D00EE040228DF8042058
:102D5000012208E05CEA010206D030228DF804204E
:102D60008DF8050002229046009B83F0080353EA89
:102D70000A030AD15CEA010201D1620705D53022BB
:102D80008DF804204FF001087F1E582804D034A08D
:102D900003900EA802900DE036A0F9E75346604676
:102DA000009AFDF7BDFA84460398825C0298401EA3
:102DB000029002705CEA0100F0D1029806A9081A9C
:102DC00000F1200A600702D524F4803400E00127D6
:102DD000574502DDA7EB0A0000E0002000EB0A01E6
:102DE000009005984144401A0590E00306D45B46E4
:102DF0002146179A059800F0B3F90544002706E02C
:102E000001A85A46C05D179990476D1C7F1C474525
:102E1000F6DBE0030CD55B462146179A059800F0D7
:102E20009FF9054404E030205A46179990476D1CDD
:102E30000099481E00900029F5DC08E002980299EC
:102E40005A460078491C0291179990476D1CBAF1B7
:102E50000001AAF1010AF1DC65E100000928010086
:102E60003031323334353637383961626364656600
:102E700000000000303132333435363738394142C2
:102E8000434445460000000000F058F90544761C14
:102E9000307800287FF4ECAD19B02846BDE8F08FFB
:102EA000620700D4062709F1070222F0070CFCE8AC
:102EB0000223E14603F000485FEA080C02D00FF25B
:102EC000702C0DE05FEA045C02D50FF2682C07E07D
:102ED0005FEAC47C02D00FF2602C01E0AFF2700C0C
:102EE0004FF0FF3823F00043CDF850C065280CD0D8
:102EF00006DC452809D046281DD047283DD13DE0B5
:102F0000662818D067287ED138E00021112F01DB18
:102F1000112000E0781CCDE9000106A90EA8FFF7FA
:102F2000DDFCDDE90F010E9A03910021009207F10B
:102F3000010A04914DE04FF000400097CDE90110E7
:102F400006A90EA8FFF7CAFCDDE90F0203920E9B4B
:102F500011990022DDF80CA00093049211B9791C9C
:102F600000EB010AB7EB0A0004D4C0F1FF3007F10F
:102F7000010A0490AAEB0700019044E0012F00DA57
:102F800001270021112F01DD112000E03846CDE995
:102F9000000106A90EA8FFF7A1FCDDE90F010E9ABA
:102FA0000391002104910092BA4621070CD40399A1
:102FB000514500DA8A46BAF1010F05DD009AAAF1FF
:102FC0000101515C302908D0B84202DA10F1040F37
:102FD00006DA0121CDE9011015E0AAF10101E9E7C6
:102FE000002805DC049901440491AAEB000102E0E9
:102FF000411C514500DD8A460499401A401C01904D
:103000004FF000400290200704D40198504501DBA6
:10301000CDF8048000208DF84F0002980DF14F0785
:10302000B0F1004F25D02B200E9002984FF00208EF
:1030300000280CDA404202902D200E9007E00A2171
:103040000298FDF757F93031029007F8011DB8F1E9
:103050000001A8F10108F2DC02980028EFD1791EE6
:103060000E980870307800F0200040F0450007F816
:10307000020D12A8C01B00F107081498007800B1D7
:10308000012000EB0A01019801EBE0710598414431
:10309000401A401E0590E00306D45B462146179A6D
:1030A000059800F05DF805441498007818B15A4668
:1030B000179990476D1CE00324D55B462146179A6B
:1030C000059800F04DF805441CE00498002807DB43
:1030D000DDE90301884203DD0098405C179901E0B7
:1030E000179930205A469047049805F10105401C75
:1030F00004900198401E019004D12E205A46179941
:1031000090476D1CBAF10001AAF1010ADDDC05E06F
:1031100017F8010B5A46179990476D1CB8F100013A
:10312000A8F10108F4DC5B462146179A0598ABE646
:103130002D0000002B000000200000002DE9F041D0
:10314000044600251E461746880404D405E0394687
:103150002020B0476D1C641EF9D52846BDE8F081DB
:103160002DE9F041044600251E469046C80301D5CE
:10317000302700E02027880404D505E04146384682
:10318000B0476D1C641EF9D52846BDE8F0814A6839
:10319000002A06D00A68531C0B6010704868401E55
:1031A0004860704701210120094A12680AB10020D5
:1031B0000CE0084A12680AB1002007E0064A1368CA
:1031C000064A1268521E934200D102207047000046
:1031D000F02B002074000020182C0020600000203C
:1031E0002DE9F0410646374613480068874201D171
:1031F00000241EE000F0E0FC7D6900F0EFFC0F48C9
:103200000068854203D00E480068854201D102243F
:103210000FE00C48854205D1B86A08B9032408E0DC
:10322000022406E00848854200D00DB9042400E0DD
:1032300001242046BDE8F081500000205400002009
:1032400058000020182C0020042C002070B50446E3
:103250000D46E1B20548FFF703FB00BF802103489C
:10326000FFF760FA0028F9D0204670BD0038014011
:103270001CB5FFF70FFAFEF7EFFBFEF77DFFFDF73A
:1032800099FE002000F0ECFF29490860032200218C
:10329000012000F0F6FF27490860032200210120E9
:1032A00000F0EFFF2449086003220021012000F014
:1032B000E8FF224908601F48006828B11E480068DE
:1032C00010B10846006820B91DA0FFF7CFFA00BF73
:1032D000FEE700231A4619461648006801F0DCF89C
:1032E00000231A4619461448006801F0D5F8002357
:1032F0001A4619461148006801F0CEF80C480068DB
:1033000020B917A0FFF7B2FA00BFFEE71B48012162
:1033100000234A02CDE9001019A11C4801F076F9FA
:103320001BA0FFF7A3FA00F097FE00BFFEE7000026
:103330002001002014010020180100201C010020A1
:103340004661696C656420746F20637265617465A1
:103350002073656D6170686F726573210A000000EB
:103360004661696C656420746F2063726561746581
:10337000206D75746578210A00000000400100206E
:1033800053746172745F5461736B0000B124000860
:103390005461736B732063726561746564210D0AF7
:1033A000000000002DE9F04105460E461C48076864
:1033B0001C480068001D00F0B5FB50B919480068B2
:1033C00090F82C100120884017490968814316485D
:1033D0000160681C38B936B112480168091D1348EC
:1033E00000F0DEFB1AE07C190E4800684460BC4225
:1033F00007D20C480168091D0D48006800F0B6FBB3
:103400000CE008480168091D0A48006800F0AEFB9E
:1034100009480068844201D207480460BDE8F08191
:10342000640000205000002068000020182C0020BC
:1034300058000020540000208000002010B50446F1
:1034400000F0BAFB24480068401C23490860234868
:10345000006840B9214804600846006801280DD181
:1034600000F0CCF90AE01E48006838B91B48006833
:10347000C06AE16A884201D81848046019480068A7
:10348000401C1849086008460068606494F82C10D5
:103490000120884014490968084313490860E16A1B
:1034A00001EB8101114A02EB8100211D00F078FB44
:1034B00000F094FB0A48006868B108480068C06AD8
:1034C000E16A884207D24FF0805009490860BFF393
:1034D0004F8FBFF36F8F10BD6000002050000020A1
:1034E0006C0000207C00002068000020482900209B
:1034F00004ED00E070B523E000F046FE13480068DC
:1035000008B9012000E00020054601F0D7F9BDB957
:1035100000F052FB0D48C068C468201D00F002FB9B
:103520000B480068401E0A4908600A480068401EAF
:103530000849086000F052FB204600F060F800BF28
:10354000044800680028D7D170BD0000042C00207A
:10355000600000205C00002070B504460D46206C21
:1035600070B1216CE0680844E0606168E0688842FE
:1035700001D32068E0602846226CE168FCF740FE39
:1035800070BD2DE9F04104460F4615464FF0000886
:10359000A66B206C40B9206860BB606801F00AF936
:1035A00080460020606025E07DB93946226CA06825
:1035B000FCF726FE216CA0680844A060D4E9011045
:1035C000884217D32068A06014E03946226CE06876
:1035D000FCF716FE216CE068401AE0602168E068A4
:1035E000884203D2216C6068401AE060022D01D14C
:1035F00006B1761E701CA0634046BDE8F08110B590
:103600000446206B00F0FAFA204600F0F7FA10BDED
:10361000002101220C4B1B68012B00D901210B4A10
:103620001268D26A0AB100200DE0094A1268012A24
:1036300001D9002007E009B1002004E0054A126822
:10364000054B1B68D01A704768000020500000200E
:1036500048290020800000206400002030B54FF48D
:103660002053174800F007042CB1C01D20F00700BC
:10367000134C041B1B1B0246124C22600024114DEC
:103680006C60D018083820F007000F4C2060002430
:103690000D4D2D686C600C4D2D682C601146441A40
:1036A0004C60094C24680C60084D4C682C60084D37
:1036B0004C682C604FF00044064D2C6030BD00007B
:1036C00048010020280000203000002038000020A1
:1036D000340000203C00002000BFFFF70BFF0F4824
:1036E0000068012807D94FF080500D490860BFF3EA
:1036F0004F8FBFF36F8FFFF78BFF0446022C0BD366
:1037000000F042FDFFF784FF0446022C02D320465E
:1037100000F0C6FA01F0D2F8DFE7000048290020E7
:1037200004ED00E010B504464CB10020606020605C
:10373000E06000231A461946204600F0ADFE10BD99
:103740002DE9F04106460D4617469846069C0DB9F0
:10375000246000E02760E66325640121204600F034
:103760005BFE84F84C80BDE8F0812DE9F05F814676
:103770000F4690469A460A9E0C9C4FEA8801A52265
:10378000206BFCF74FFDA8F10100216B01EB800BD2
:103790002BF0070B002507E0795D04F1340041555B
:1037A000785D00B902E06D1C102DF5D300BF00213B
:1037B00043200155202E00D31F26E662E664002038
:1037C0002065201D00F0CFF904F1180000F0CBF9BE
:1037D0002461C6F12000A06164620020606584F865
:1037E000580052464946584600F08AF920600B9826
:1037F00008B10B980460BDE8F09F000010B50024EC
:1038000007E004EB84010F4A02EB810000F09EF90F
:10381000641C202CF5D30C4800F098F90B4800F0FC
:1038200095F90B4800F092F90A4800F08FF90A4820
:1038300000F08CF904480949086004480849086008
:1038400010BD000048290020C82B0020DC2B0020E0
:10385000F02B0020042C0020182C00205400002005
:103860005800002010B50146164800E000680368C3
:103870008B42FBD30246436813448B4204D1436816
:103880004C682344436001460A464B68134404686D
:10389000A34211D10C4C03682468A34208D04B68A2
:1038A0000468646823444B6003681B680B6005E090
:1038B000054B1B680B6001E003680B60884200D079
:1038C000016010BD280000203000002070B50546C2
:1038D00000F072F9A86B08B9012400E0002400F0A0
:1038E0007DF9204670BD70B5054600F065F9A86BFE
:1038F000E96B884201D1012400E0002400F06EF958
:10390000204670BD0A490968096809B9012100E02B
:10391000002121B14FF0FF31064A116006E0044951
:103920000968C968C868034A4168116070470000A7
:10393000540000208000002000BF502080F3118838
:10394000BFF34F8FBFF36F8F00BF00BFFEE70000D4
:1039500010B5014600200A460B4C5369A34201D121
:10396000012300E0002373B1084C936AA34201D104
:10397000012300E0002333B9936A0BB9012300E06F
:10398000002303B1012010BD182C0020F02B0020D3
:1039900070B5044600F010F994F9455010E0606AE3
:1039A00008B9012000E0002038B904F1240000F03B
:1039B00043FF18B100F09AFA00E003E0681E45B238
:1039C000002DECDC00BFFF2084F8450000F006F974
:1039D00000F0F2F894F9445010E0206908B9012091
:1039E00000E0002048B904F1100000F025FF08B104
:1039F00000F07CFA681E45B200E001E0002DECDC2E
:103A000000BFFF2084F8440000F0E8F870BD00001B
:103A10002DE9F04105464FF0000800F0B5FB2B48BA
:103A2000006808B9FFF71AFE2948006828400028F6
:103A300047D145B1083505F0070020B105F0070072
:103A4000C0F108000544002D3BD0224800688542A3
:103A500037D8214E3046046801E026462468606865
:103A6000A84202D220680028F7D118480068844292
:103A700027D0306800F10808206830606068401B7B
:103A8000102807D967196068401B78606560384660
:103A9000FFF7E8FE0F4960680968081A0D490860D9
:103AA000084600680D490968884203D20948006841
:103AB0000A49086006496068096808436060002098
:103AC000206000F0FBFE4046BDE8F08130000020A1
:103AD0003C00002034000020280000203800002096
:103AE0000648006830B10549096801F15000096DC8
:103AF000491C016001480068704700005000002028
:103B0000001F4FF080730360001F21F0010303606A
:103B1000001F034B03601438026020387047000018
:103B20003939000801460A69D1E901309860D1E9C4
:103B3000010358605068884201D1886850600020B5
:103B400008611068401E10601068704700F108019D
:103B500041604FF0FF31816000F10801C1600161F7
:103B600000210160704700210161704710B50246D5
:103B70000B685C1C0CB9106907E002F1080000E05A
:103B80004068446824689C42FAD944684C604C6898
:103B9000A160886041600A611468641C146010BDF3
:103BA00042684A6093688B609368596091600861CD
:103BB00003685B1C0360704700BF502080F31188CE
:103BC000BFF34F8FBFF36F8F00BF03480068401CE7
:103BD0000149086070470000400000200648006866
:103BE000401E054908600846006820B9002080F39F
:103BF000118800BF00BF70474000002070B5064626
:103C00003546D6B1083D2C460C4960680968084025
:103C100098B1206888B9094960680968884360607C
:103C200000F0B2FA0649606809680844044908606F
:103C30002046FFF717FE00F041FE70BD3C0000205B
:103C400034000020124800684FF47A71B0FBF1F0A4
:103C500010490860084600686FF07F41B1FBF0F042
:103C60000D4908600A480068B0FBF0F02D21B1FB57
:103C7000F0F00A490860064800684FF47A71B0FB1A
:103C8000F1F0401E4FF0E0214861072008617047C5
:103C90000000002044000020480000204C000020CC
:103CA0002DE9F04704464E480068844201D94C484B
:103CB00004684FF0E020006920F001004FF0E0219F
:103CC000086108468169601E464A126802FB0015B9
:103CD00045480068854202D9434800682D1A72B6EB
:103CE000BFF34F8FBFF36F8FFFF75CFA80B94FF0D0
:103CF000E02080694FF0E02148610846006940F00B
:103D00000100086137480068401E486162B665E0FE
:103D10004FF0E020456100204FF0E0218861084627
:103D2000006940F001000861A146B9F1000404D027
:103D3000BFF34F8F30BFBFF36F8F4FF0E020D0F84D
:103D4000108028F001004FF0E021086162B608F40D
:103D50008030B8B123490968491E4FF0E0229269CA
:103D6000AA1A881A20490968884203D31D4909689C
:103D7000884202D91B490968481E4FF0E02148617A
:103D8000661E12E01748006860434FF0E021896921
:103D9000471A14480068B7FBF0F6701C114909680F
:103DA0004843C01B4FF0E021486100204FF0E02164
:103DB0008861FFF701FF4FF0E020006940F001004B
:103DC0004FF0E0210861304600F078F905480068BE
:103DD000401E4FF0E0214861FFF700FFBDE8F0878B
:103DE00048000020440000204C00002070B504462C
:103DF000002544B100F0C8F900212046FFF7D2FAAF
:103E000000F05CFD05463DB94FF080500349086065
:103E1000BFF34F8FBFF36F8F70BD000004ED00E064
:103E200070B50546FFF7C8FE15B92748006800E0E1
:103E300028460446201DFFF775FE78B9E06A00EBBE
:103E40008000224951F8200040B994F82C1001203C
:103E500088401F49096881431D480160A06A18B164
:103E600004F11800FFF75EFE1A480068401C19496B
:103E7000086015480068844209D1211D1648FFF7E3
:103E80008FFE16480068401C1449086009E0144879
:103E90000068401E124908602046FFF7B0FBFFF79C
:103EA00031FDFFF79BFE0F48006858B106480068D7
:103EB000844207D14FF080500B490860BFF34F8F09
:103EC000BFF36F8F70BD0000500000204829002014
:103ED000680000207C000020042C00205C000020F2
:103EE000600000206C00002004ED00E0012001498A
:103EF000086070477400002070B505460C46054800
:103F0000016818312846FFF731FE01212046FFF7EE
:103F100049FA70BD5000002070B505462C46002DB2
:103F20004BD02649E06A0968C96A884245D2A0692F
:103F300000F0004028B921480068C06AC0F12000A4
:103F4000A061E16A01EB81011D4A02EB8101606918
:103F5000884201D1012000E0002050B3201DFFF76E
:103F6000E1FD78B9E06A00EB8000154951F82000C6
:103F700040B994F82C100120884012490968814307
:103F8000104801600D480068C06AE06294F82C1087
:103F9000012088400B49096808430A490860E16A22
:103FA00001EB8101064A02EB8100211DFFF7F8FDBC
:103FB00003E002480068C06AE06270BD5000002063
:103FC000482900206800002070B505462C4674B3CF
:103FD0001748006884422AD0FFF7EEFD2046FFF71D
:103FE000B7FC10B3201DFFF79DFD94F82C100120A5
:103FF00088401049096808430E490860E16A01EBEE
:1040000081010D4A02EB8100211DFFF7C9FD08491E
:10401000E06A0968C96A884207D34FF080500749AF
:104020000860BFF34F8FBFF36F8FFFF7D7FD70BDF1
:1040300050000020680000204829002004ED00E026
:10404000034909680160034909684160704700003D
:1040500078000020640000201CB5114800210B46A8
:104060008022CDE900100FA1104800F0CFFA0446DD
:10407000012C14D100BF502080F31188BFF34F8F63
:10408000BFF36F8F00BF4FF0FF3009490860012078
:104090000849086000200849086000F0ADF81CBD20
:1040A0008400002049444C4500000000D936000837
:1040B000800000206C000020640000200249096894
:1040C0000144014A116070476400002070B5054644
:1040D000FFF772FD15B92548006800E02846044640
:1040E000201DFFF71FFD78B9E06A00EB8000204932
:1040F00051F8200040B994F82C10012088401D4947
:10410000096881431B480160A06A18B104F11800D6
:10411000FFF708FD211D1848FFF742FDFFF75EFD80
:104120001648006828B1FFF747FDFFF7EBFBFFF7E4
:1041300055FD0E480068844217D11048006840B110
:104140004FF080500E490860BFF34F8FBFF36F8F61
:104150000BE0094800680B490968884203D1002038
:104160000249086001E000F017F870BD500000201F
:104170004829002068000020182C00206C00002036
:1041800004ED00E06000002002480068401C014986
:1041900008607047880000201248006818B10120AC
:1041A000114908601DE000200F4908600F480068B1
:1041B000B0FA80F0C0F11F0101EB81020C4B03EB60
:1041C000820042685268426000F1080243689342EC
:1041D00002D14268526842604268D268054B1A6058
:1041E00000BF704788000020740000206800002095
:1041F000482900205000002010B50A48006840F40B
:104200007000084908600846006840F07040086087
:10421000FFF718FD002004490860FBF7A5FF002008
:1042200010BD000020ED00E04000002010B500BFF0
:10423000502080F31188BFF34F8FBFF36F8F00BF03
:1042400000F02AFA18B14FF080500449086000BF0E
:10425000002080F3118800BF10BD000004ED00E0D5
:104260002DE9F041044601260027224600210120C5
:1042700000F007F805462846FFF754FA2846BDE83F
:10428000F0812DE9F84307460D4690460DB900260A
:1042900001E007FB05F606F15000FFF7B9FB044605
:1042A00044B104F1500943464A4629463846009431
:1042B000FFF746FA2046BDE8F88300002DE9FF47E6
:1042C00082B0054689461E464FF0000A2C4600BFC4
:1042D000FFF772FCD4F83880B8F1000F3BD0E768E4
:1042E00049462046FFF738F9DEB9A8F10100A0637E
:1042F000206810B9FFF7F4FB6060206908B901205D
:1043000000E0002008BB04F1100000F095FAE0B1D5
:104310004FF080503F490860BFF34F8FBFF36F8F5E
:1043200013E0E760606A08B9012000E0002060B98E
:1043300004F1240000F080FA38B14FF08050354984
:104340000860BFF34F8FBFF36F8FFFF747FC01206B
:1043500006B0BDE8F087049818B9FFF73FFC0020CD
:10436000F6E7BAF1000F04D16846FFF769FE4FF097
:10437000010AFFF733FCFFF707FFFFF71DFC94F975
:104380004400401C10B9002084F8440094F9450012
:10439000401C10B9002084F84500FFF71FFC04A959
:1043A000684600F005F940BB2046FFF78FFAF0B1F0
:1043B000206830B9FFF700FC6068FFF7ADFDFFF73C
:1043C0000DFC04F124000499FFF796FD2046FFF749
:1043D000DFFA00F073FA00287FF47AAF4FF08050D4
:1043E0000C490860BFF34F8FBFF36F8F70E7204613
:1043F000FFF7CEFA00F062FA6AE72046FFF7C8FA44
:1044000000F05CFA2046FFF761FA0028EED00020A9
:104410009EE7000004ED00E070B505460E462C4610
:10442000FFF7CAFBD4E90F12206801FB02006060AD
:104430000020A0632068A060E06B401E226C216811
:1044400000FB0210E060FF2084F8440084F845007F
:104450009EB9206908B9012000E00020A8B904F144
:10446000100000F0E9F980B14FF080500949086070
:10447000BFF34F8FBFF36F8F07E004F11000FFF71A
:1044800065FB04F12400FFF761FBFFF7A7FB0120A8
:1044900070BD000004ED00E02DE9FF4383B0074646
:1044A00088461D464FF000093C4600BFFFF784FBDD
:1044B000A06BE16B884201D3022D28D12A464146E8
:1044C0002046FFF75EF80646606A08B9012000E062
:1044D000002068B904F1240000F0AEF988B14FF073
:1044E000805032490860BFF34F8FBFF36F8F08E0F1
:1044F0003EB14FF080502D490860BFF34F8FBFF39E
:104500006F8FFFF76BFB012007B0BDE8F0830598C4
:1045100018B9FFF763FB0020F6E7B9F1000F04D1EB
:1045200001A8FFF78DFD4FF00109FFF757FBFFF7DB
:104530002BFEFFF741FB94F94400401C10B900200A
:1045400084F8440094F94500401C10B9002084F818
:104550004500FFF743FB05A901A800F029F8F0B9D1
:104560002046FFF7C0F9A0B104F110000599FFF74C
:10457000C3FC2046FFF70CFA00F0A0F9002895D103
:104580004FF0805009490860BFF34F8FBFF36F8F22
:104590008CE72046FFF7FCF900F090F986E720460B
:1045A000FFF7F6F900F08AF90020ADE704ED00E02E
:1045B00070B504460D46FFF7FFFA124802682868F6
:1045C000401C08B9002619E00F4920680968884294
:1045D00004D06068904201D801260FE06068101A8C
:1045E0002968884209D228686168511A401A2860EF
:1045F0002046FFF725FD002600E00126FFF7EEFA32
:10460000304670BD64000020780000202DE9FF4F87
:1046100085B0804689461746DDE912ABB800FFF742
:10462000F7F9064656B15C20FFF7F2F904460CB1E3
:10463000266304E03046FFF7E1FA00E000247CB195
:104640000020CDE900ABCDE902403A46494640465C
:10465000089BFFF78AF82046FEF7F0FE012501E0EF
:104660004FF0FF35284609B0BDE8F08F05490968CD
:1046700009B9012005E00449096809B9022000E0F0
:10468000002070476C000020880000200149086865
:1046900070470000640000202DE9F04100273A48EF
:1046A0000068002863D139480068451C3748056018
:1046B0008DB93748D0F80080364800683449086022
:1046C0003448C0F8008034480068401C3249086013
:1046D000FFF718F900BF3148006885423BD300BF9F
:1046E0002B480068006808B9012000E0002020B1D4
:1046F0004FF0FF30294908602CE025480068C06869
:10470000C4686668B54202D22448066022E0201DD3
:10471000FFF708FAA06A18B104F11800FFF702FACF
:1047200094F82C10012088401D49096808431C4951
:104730000860E16A01EB81011A4A02EB8100211D48
:10474000FFF72EFA1849E06A0968C96A8842C7D398
:104750000127C5E700BF14480068C06A00EB80006D
:10476000104951F82000012800D9012704E00F4822
:104770000068401C0D4908600D48006800B1012721
:104780003846BDE8F0810000880000206400002069
:1047900054000020580000207800002080000020F5
:1047A00068000020482900205000002070000020F0
:1047B0007400002070B505462C460026ADB3206D70
:1047C000401E2065E16CE06A88422ED0206D60BBFF
:1047D000201DFFF7A7F978B9E06A00EB80001449C3
:1047E00051F8200040B994F82C100120884011495C
:1047F000096881430F480160E06CE062E06AC0F143
:104800002000A06194F82C10012088400949096813
:10481000084308490860E16A01EB8101044A02EBA0
:104820008100211DFFF7BCF90126304670BD000054
:10483000482900206800002070B50646F068C4686A
:1048400004F11800FFF76EF916480068A8B9201D9A
:10485000FFF768F994F82C10012088401249096884
:10486000084311490860E16A01EB81010F4A02EB3C
:104870008100211DFFF794F904E004F118010C48B0
:10488000FFF78EF90B49E06A0968C96A884204D9C2
:10489000012501200849086000E00025FFF732F8F3
:1048A000284670BD880000206800002048290020AC
:1048B000F02B0020500000207400002070B5002470
:1048C0000026FFF779F92E480068401E2C49086041
:1048D0000846006800284FD12A48006800284BD0BD
:1048E00024E02948C068C46804F11800FFF71AF9E9
:1048F000201DFFF717F994F82C1001208840234958
:104900000968084321490860E16A01EB8101204AF6
:1049100002EB8100211DFFF743F91E49E06A096897
:10492000C96A884202D301201B4908601648006802
:1049300008B9012000E000200028D2D00CB1FEF719
:10494000E1FF1648056865B100BFFFF7A5FE10B18D
:104950000120114908606D1E002DF6D100200F497D
:1049600008600D48006838B1012630070C4908601E
:10497000BFF34F8FBFF36F8FFFF730F9304670BD35
:104980008800002060000020F02B0020680000203C
:1049900048290020500000207400002070000020F2
:1049A00004ED00E031323341343536423738394393
:1049B0002A3023444000FE079200FE079204FE07BF
:1049C00002008A04BA028A01AA041907C2B92000A7
:1049D00000000000000000000000000000000000D7
:1049E00000000000200020002000200024012402FC
:1049F000220222042104200020003800D0A120003F
:104A000000000000000000000000000000000000A6
:104A1000000000002000A70722012A012A012F011F
:104A2000AA072601220116011301C807B0E02000E1
:104A30000000000000000000000000000000000076
:104A40000000000008012701440104013F01440166
:104A50000E011607E501040104010401BFC6200090
:104A60000000000000000000000000000000000046
:104A70000000000084008400F4078F008400F40329
:104A80002C0227024401840044013606BCBC2000ED
:104A90000000000000000000000000000000000016
:104AA0000000000000000000000000000000000006
:104AB00000000000000000000000000000000000F6
:104AC00000000000000000000000000000000000E6
:104AD00000000000000000000000000000000000D6
:104AE00000000000000000000000000000000000C6
:104AF00000000000000000000000000000000000B6
:104B000000000000000000000000000000000000A5
:104B10000000000000000000000000000000000095
:104B20000000000000000000000000000000000085
:104B30000000000000000000000000000000000075
:104B40000000000000000000000000000000000065
:104B50000000000000000000000000000000000055
:104B60000000000000000000000000000000000045
:104B70000000000000000000000000000000000035
:104B80000000000000000000000000000000000025
:104B90000000000080000001FC7F44044404FC3F4E
:104BA00044244424FC3F14021422F41A1206122254
:104BB000D122303CC2B920000000000000000000FB
:104BC00000000000000000000000000000000000E5
:104BD00000000000800080008000800080008808C5
:104BE000881088208420844082408140800080009A
:104BF000A0004000D0A12000000000000000000044
:104C000000000000000000000000000000000000A4
:104C100000000000000100011F7D441144114411F7
:104C200044115F7D4411241104119C108710427CB3
:104C300020001000B0E02000000000000000000094
:104C40000000000000000000000000000000000064
:104C5000000000001008B8080F0908090808BF087C
:104C600008091C092C080A78CA0F0908080808084E
:104C700008080808BFC6200000000000000000006F
:104C80000000000000000000000000000000000024
:104C900000000000080408040804C87F3F0408045A
:104CA0000804A83F18210C110B12080A0804080A6E
:104CB0008A116460BCBC20000000000000000000FD
:104CC00000000000000000000000000000000000E4
:104CD00000000000000000000000000000000000D4
:104CE00000000000000000000000000000000000C4
:104CF00000000000000000000000000000000000B4
:104D000000000000000000000000000000000000A3
:104D10000000000000000000000000000000000093
:104D20000000000000000000000000000000000083
:104D30000000000000000000000000000000000073
:104D40000000000000000000000000000000000063
:104D50000000000000000000000000000000000053
:104D60000000000000000000000000000000000043
:104D70000000000000000000000000000000000033
:104D80000000000000000000000000000000000023
:104D90000000000000000000000000000000000013
:104DA0000000000000000000000000000000000003
:104DB00000000000000000000000000000000000F3
:104DC00000000000000000000000000000000000E3
:104DD00000000000000000000000000000000000D3
:104DE00000000000000000000000000000000000C3
:104DF00000000000000000000000000000000000B3
:104E000000000000000000000000000000000000A2
:104E100000000000000000000400000C00F8EE0399
:104E2000081100081100F8FF01081101081101F82C
:104E3000F701080801C81001489001C87300481024
:104E400002481402441302C4F003020000000000F0
:104E5000C2B92000000000000000000000000000B7
:104E60000000000000000000000000000000000042
:104E70000000000000000000000000000000000032
:104E80000000000000000000000000000000000022
:104E900004000004000004000004000004004004BA
:104EA0000060240020C400208401100403080403CF
:104EB000080402040402000400000400000400804E
:104EC0000700000200000000D0A120000000000048
:104ED00000000000000000000000000000000000D2
:104EE00000000000000000000000000000000000C2
:104EF00000000000000000000000000000000000B2
:104F000000000000000000000400EC040010BC03DE
:104F1000104400104400104400104500FC450010EF
:104F2000E503904400104400104400D04200304299
:104F3000000E410082F80740000030000000000031
:104F4000B0E02000000000000000000000000000B1
:104F50000000000000000000000000000000000051
:104F60000000000000000000000000000000000041
:104F70000000000000000000000000000000000031
:104F80008000C081003C800020880020900020909C
:104F900000FC8100208000608800B0900030810714
:104FA00028F9002487002280002080002080002033
:104FB0008000208000000000BFC62000000000002C
:104FC00000000000000000000000000000000000E1
:104FD00000000000000000000000000000000000D1
:104FE00000000000000000000000000000000000C1
:104FF0000000000000000010100030200020200001
:10500000202000FCFF03202000202000202000E0C2
:10501000F801380401268400208800204800207010
:10502000002030002048003C860390010200000070
:10503000BCBC2000000000000000000000000000D8
:105040000000000000000000000000000000000060
:105050000000000000000000000000000000000050
:105060000000000000000000000000000000000040
:105070000000000000000000000000FCFF03000032
:1050800000000000000000000000F8FF0100000028
:10509000000000000000000000000000FEFF07000C
:1050A0000000000000000000C8FD2000000000001B
:1050B00000000000000000000000000000000000F0
:1050C00000000000000000000000000000000000E0
:1050D00000000000000000000000000000000000D0
:1050E00000000000000000000000000000000000C0
:1050F000000000102000FEFF01102000F03F001013
:105100002000F03F00102000FFFF03102100FCFFF3
:1051100000030103FEFF010000000000000000008A
:10512000BBF92000000000000000000000000000AB
:10513000000000000000000000000000000000006F
:10514000000000000000000000000000000000005F
:10515000000000000000000000000000000000004F
:105160000000000000000000000000400000F01FF0
:1051700000181800040C00FFFF00048200048200E5
:10518000FCFF00048000040000040002F8FF01009E
:105190000000000000000000C9AB2000000000007B
:1051A00000000000000000000000000000000000FF
:1051B00000000000000000000000000000000000EF
:1051C00000000000000000000000000000000000DF
:1051D00000000000000000000000000000000000CF
:1051E00000000000000000000000000000000000BF
:1051F00000000000000000000000000000000000AF
:10520000000000000000000000000000000000009E
:10521000000000000000000000000000000000008E
:10522000000000000000000000000000000000007E
:10523000000000000000000000000000000000006E
:10524000000000000000000000000000000000005E
:10525000000000000000000000000000000000004E
:10526000000000000000000000000000000000003E
:10527000000000000000000000000000000000002E
:10528000000000000000000000000000000000001E
:10529000000000000000000000000000000000000E
:1052A00000000000000000000000000000000000FE
:1052B00000000000000000000000000000000000EE
:1052C00000000000000000001000003010F0FF3F60
:1052D000104200104200104200F0FF1F1042081060
:1052E0004208104208F0FF0F10200890C0009041C3
:1052F0000890410E904F0398C100884110884910D2
:1053000084473084C13F020000000000C2B9200081
:10531000000000000000000000000000000000008D
:10532000000000000000000000000000000000007D
:10533000000000000000000000000000000000006D
:10534000000000000000000000000000000000005D
:10535000000000000000000000000018000018001D
:10536000001000001000001000001000809000806D
:105370001101C0100240100460101C3010181010F1
:105380003008103004102000100000100000100041
:10539000001900001E00000C00000000D0A1200039
:1053A00000000000000000000000000000000000FD
:1053B00000000000000000000000000000000000ED
:1053C00000000000000000000000000000000000DD
:1053D00000000000000000000000000000000000CD
:1053E00000000000000000001000003000FED13F6F
:1053F000201002201002201002201002201402FCB3
:10540000150220140220D63F201202201202201082
:1054100002A009026008021C08020604020002023F
:1054200000F13FC00000200000000000B0E02000BC
:10543000000000000000000000000000000000006C
:10544000000000000000000000000000000000005C
:10545000000000000000000000000000000000004C
:10546000000000000000000000000000000000003C
:105470000000000000000000000400070CF8000419
:10548000C00004C06004C0C004C00004FE0704C023
:105490000004C02004E06004E04304F04624D0444B
:1054A00074C8800FC87804C40404C20004C0000497
:1054B000C00004C00004C00004400004BFC62000B7
:1054C00000000000000000000000000000000000DC
:1054D00000000000000000000000000000000000CC
:1054E00000000000000000000000000000000000BC
:1054F00000000000000000000000000000000000AC
:10550000000000000000002080006080016080003A
:10551000608000608000FEFF3F608000608000606F
:105520008000608200E0FD1F7010086E100C642087
:105530000460200660400260400360800160400318
:1055400064300E780C7C200310000000BCBC2000EE
:10555000000000000000000000000000000000004B
:10556000000000000000000000000000000000003B
:10557000000000000000000000000000000000002B
:10558000000000000000000000000000000000001B
:10559000000000000000000000000000000000000B
:1055A0000000C0F8FFC018C0CC18C0CCF8FFCC1861
:1055B000C0CC180CCC180CCCD8FFCCD8CCCCD8CCC8
:1055C000CCD8CCCCCCCCC0CCCCC004FCC0060C7E9F
:1055D000000000000000000000000000CBA220003E
:1055E00000000000000000000000000000000000BB
:1055F00000000000000000000000000000000000AB
:10560000000000000000000000000000000000009A
:10561000000000000000000000000000000000008A
:10562000000000000000000000000000000000007A
:105630000000C0F8FFC018C0CC18C0CCF8FFCC18D0
:10564000C0CC180CCC180CCCD8FFCCD8CCCCD8CC37
:10565000CCD8CCCCCCCCC0CCCCC004FCC0060C7E0E
:10566000000000000000000000000000CBA22000AD
:10567000000000000000000000000000000000002A
:10568000000000000000000000000000000000001A
:10569000000000000000000000000000000000000A
:1056A00000000000000000000000000000000000FA
:1056B00000000000000000000000000000000000EA
:1056C000000000F8FF7F180060180060F8FF7F18E6
:1056D0000666180C06180803D8FF7F180C06180C6D
:1056E00006F8FFFF0C0C060C0C0604060606030663
:1056F000030106000000000000000000C6C12000F9
:105700000000000000000000000000000000000099
:105710000000000000000000000000000000000089
:105720000000000000000000000000000000000079
:105730000000000000000000000000000000000069
:105740000000000000000000000000000000000059
:105750000200C084FFCC9CC1CC88C1CC80D9CC8352
:10576000D9CC8ED9CC98D9CC80D9CC80D9CC88D979
:10577000CC98CDCC0C0CCC0C36C00C63C0C6C1C0D0
:1057800074807D000000000000000000B2E22000F4
:105790000000000000000000000000000000000009
:1057A00000000000000000000000000000000000F9
:1057B00000000000000000000000000000000000E9
:1057C00000000000000000000000000000000000D9
:1057D00000000000000000000000000000000000C9
:1057E00002001B0C007318004338000380FFFF0009
:1057F00000031F000318000398FF0318180218186D
:1058000006981806D8188678188C38F88D9C0F984A
:105810000800F0000000000000000000CAD42000D2
:105820000000000000000000000000000000000078
:105830000000000000000000000000000000000068
:105840000000000000000000000000000000000058
:105850000000000000000000000000000000000048
:105860000000000000000000000000000000000038
:10587000008301FEFFFF008301F0FF3F300030F0A6
:10588000FF3F300030F0FF3F300C30000600FEFFDD
:10589000FFC0300CF8FF7F67309860301860301F11
:1058A000003000000000000000000000C4BB200029
:1058B00000000000000000000000000000000000E8
:1058C00000000000000000000000000000000000D8
:1058D00000000000000000000000000000000000C8
:1058E00000000000000000000000000000000000B8
:1058F00000000000000000000000000000000000A8
:1059000000630080C100C080016000033000061801
:10591000001C0E00700200C0F8FF0F00030E000311
:105920000E800106800106C0000660000738FC03F7
:105930000E0000000000000000000000B7D62000AC
:105940000000000000000000000000000000000057
:105950000000000000000000000000000000000047
:105960000000000000000000000000000000000037
:105970000000000000000000000000000000000027
:105980000000000000000000000000000018600C93
:10599000306018306010FEE1FF00600082EDC1C48D
:1059A0006C636C6C36FE65FF3066183066183060CC
:1059B00018FEB1FF3030183818181C1C180E0E18BD
:1059C000020218000000000000000000B1E6200004
:1059D00000000000000000000000000000000000C7
:1059E00000000000000000000000000000000000B7
:1059F00000000000000000000000000000000000A7
:105A00000000000000000000000000000000000096
:105A10000000000000000000000000000000000086
:105A2000003800007000FFFFFF003800064E608C59
:105A30006338D03F08001C00202604F8C31CCFFFA9
:105A4000F1023041003000FFFFFF00300000300065
:105A5000003000000000000000000000C2CA20006A
:105A60000000000000000000000000000000000036
:105A70000000000000000000000000000000000026
:105A80000000000000000000000000000000000016
:105A90000000000000000000000000000000000006
:105AA0000000000000000000000000000030800046
:105AB00030800130000330FEFFFE06C03086C43067
:105AC0004018303030301860F00FC03EF87F3000A2
:105AD0000330000330000330000330000330FFFFC9
