:020000040800F2
:10000000802F0020DD010008C90300085B03000801
:10001000C5030008250200082909000800000000A7
:100020000000000000000000000000004501000882
:10003000290200080000000089010008CD06000820
:10004000F7010008F7010008F7010008F7010008B0
:10005000F7010008F7010008F7010008F7010008A0
:10006000F7010008F7010008F7010008F701000890
:10007000F7010008F7010008F7010008F701000880
:10008000F7010008F7010008F7010008F701000870
:10009000F7010008F7010008F7010008F701000860
:1000A000F7010008F7010008F7010008F701000850
:1000B000F7010008F7010008F7010008F701000840
:1000C000F7010008F7010008F7010008F701000830
:1000D000F7010008F7010008F7010008F701000820
:1000E000F7010008F7010008F7010008F701000810
:1000F000F7010008F7010008F7010008F701000800
:10010000F7010008F7010008F7010008F7010008EF
:10011000F7010008F7010008F7010008F7010008DF
:10012000F7010008F7010008F7010008F7010008CF
:10013000DFF80CD000F064F800480047DD09000843
:10014000802F0020224B19680868B0E8F00F80F378
:100150000988BFF36F8F4FF0000080F311884EF0D5
:100160000D0E70470000000006480068006880F32C
:10017000088862B661B6BFF34F8FBFF36F8F00DFA1
:1001800000BF00BF08ED00E0EFF30980BFF36F8F01
:100190000F4B1A6820E9F00F106008B54FF05000BF
:1001A00080F31188BFF34F8FBFF36F8F01F02CF9ED
:1001B0004FF0000080F31188BDE808401968086816
:1001C000B0E8F00F80F30988BFF36F8F704700BF6E
:1001D00050000020EFF3058070470000064880477C
:1001E00006480047FEE7FEE7FEE7FEE7FEE7FEE71C
:1001F000FEE7FEE7FEE7FEE7DD0600083101000846
:10020000064C074D06E0E06840F0010394E8070063
:1002100098471034AC42F6D3FFF78EFF541700080E
:100220007417000800BFFEE770472DE9F041024651
:1002300000250026002000230024002791F803C099
:100240000CF00F0591F803C00CF0100CBCF1000F7E
:1002500003D091F802C04CEA050591F800C0BCF14A
:10026000000F31D0146800202BE04FF0010C0CFA85
:1002700000F3B1F800C00CEA03069E4220D18300CF
:100280004FF00F0C0CFA03F7BC4305FA03FC4CEAE1
:10029000040491F803C0BCF1280F06D14FF0010C03
:1002A0000CFA00FCC2F814C00AE091F803C0BCF1DB
:1002B000480F05D14FF0010C0CFA00FCC2F810C039
:1002C000401C0828D1D31460B1F800C0BCF1FF0F66
:1002D00034DD546800202EE000F1080C4FF00108D6
:1002E00008FA0CF3B1F800C00CEA03069E4221D1D3
:1002F00083004FF00F0C0CFA03F7BC4305FA03FC24
:100300004CEA040491F803C0BCF1280F05D100F1B8
:10031000080C08FA0CF8C2F8148091F803C0BCF17C
:10032000480F07D100F1080C4FF0010808FA0CF84B
:10033000C2F81080401C0828CED35460BDE8F0817C
:1003400002460020D3680B400BB1012000E00020E2
:100350007047416170470161704700BFFEE70000D0
:1003600010B54FF480710848FFF7EAFF28B94FF441
:1003700080710548FFF7EFFF04E04FF480710248F9
:10038000FFF7E7FF10BD00000008014008B501219C
:10039000042000F06FF810208DF803004FF48270F5
:1003A000ADF8000003208DF8020069460448FFF70D
:1003B0003CFF4FF482710248FFF7CDFF08BD0000FB
:1003C0000008014000BFFEE7704708B54FF4A06089
:1003D00000F046F825208DF8000001208DF801007E
:1003E0008DF802008DF80300684600F001F808BDA2
:1003F00070B5002100230F22C47804B3154C246883
:1004000004F4E064C4F5E064210AC1F10403CA40C5
:10041000447804FA03F184781440214309010E4C16
:100420000678A155047804F01F050124AC40057836
:100430006D11AD0005F1E025C5F8004109E0047833
:1004400004F01F050124AC40044D0678761145F8F0
:10045000264070BD0CED00E000E400E080E100E02B
:1004600002490143024A1160704700000000FA058A
:100470000CED00E029B1064A92690243044B9A61EF
:1004800004E0034A92698243014B9A61704700007D
:100490000010024030B500210022002400232D4D21
:1004A0006D6805F00C0121B1042905D0082923D17C
:1004B00005E0294D056022E0274D05601FE0254D30
:1004C0006D6805F47012234D6D6805F480340225C3
:1004D00005EB92421CB9214D554305600BE01D4DC3
:1004E0006D6805F400351DB11C4D5543056002E0F3
:1004F000194D5543056002E0174D056000BF00BF70
:10050000144D6D6805F0F0010909154D6B5C056827
:10051000DD4045600F4D6D6805F4E061090A104D3E
:100520006B5C4568DD4085600A4D6D6805F460517F
:10053000C90A0B4D6B5C4568DD40C560054D6D68B3
:1005400005F44041890B074D6B5CC568B5FBF3F5BD
:10055000056130BD0010024000127A0000093D0024
:10056000140000202400002010B500F001F810BD98
:100570000CB50020019000903348006840F48030B2
:100580003149086000BF3048006800F40030009036
:100590000198401C0190009818B90198B0F5A06F1F
:1005A000F1D12948006800F4003010B1012000901A
:1005B00001E0002000900098012843D12348006802
:1005C00040F01000214908600846006820F0030050
:1005D00008600846006840F0020008601A48406859
:1005E000194948600846406848600846406840F439
:1005F000806048600846406820F47C1048600846E7
:10060000406840F4E81048600846006840F0807098
:10061000086000BF0C48006800F000700028F9D0A6
:100620000948406820F003000749486008464068D0
:1006300040F00200486000BF0348406800F00C0032
:100640000828F9D10CBD0000001002400020024033
:100650001CB5044600F0FCFC0EA000F067F900F0A9
:1006600009FD1348032100238022CDE9001011A1C8
:10067000114800F02DFF1148022100238022CDE90E
:1006800000100FA1104800F023FF002000F014FE1E
:100690001CBD000053746172745461736B206973E4
:1006A0002072756E6E696E6721200D0A00000000D1
:1006B0008C0000204C454400190A000890000020DE
:1006C0004C45443200000000390A000810B500F023
:1006D0002FFF012801D000F0E1FE10BD10B5134836
:1006E000006840F001001149086008464068104960
:1006F00008400E494860084600680E4908400B490A
:1007000008600846006820F48020086008464068B9
:1007100020F4FE0048604FF41F008860FFF724FFBC
:100720004FF000600449086010BD00000010024056
:100730000000FFF8FFFFF6FE08ED00E021B182891E
:1007400042F40052828104E082894DF6FF731A4020
:100750008281704700B585B001210420FFF78AFE31
:1007600001218803FFF786FE4FF40070ADF81000FA
:1007700018208DF8130003208DF8120004A91748E3
:10078000FFF753FD4FF48060ADF8100004208DF8A2
:10079000130004A91148FFF748FD4FF416500090CC
:1007A0000020ADF80400ADF80600ADF80800ADF883
:1007B0000C000C20ADF80A006946094800F044F826
:1007C000FFF703FE012240F22551054800F017F81B
:1007D00001210348FFF7B2FF05B000BD000801404A
:1007E0000038014002460020B1F5007F00D100BF73
:1007F00013880B400BB1012000E000207047F0B5DA
:100800000346002400260025002040F66A17B9425E
:1008100000D100BF1846C1F3421401F01F060127A2
:1008200007FA06F5012C01D10C3004E0022C01D1AD
:10083000103000E014301AB107682F43076002E05F
:100840000768AF430760F0BD2DE9F04786B0054665
:100850000E460024A24600BFA1460027B08900B181
:1008600000BF2F462C8A4CF6FF700440F0880443EA
:100870002C82AC894EF6F3100440B08831890843CD
:10088000718908430443AC81AC8A4FF6FF400440B1
:10089000B0890443AC8201A8FFF7FCFD1F488742E2
:1008A00002D1DDF810A001E0DDF80CA0A88900F469
:1008B000004040B10AEBCA0000EB0A103168490061
:1008C000B0FBF1F807E00AEBCA0000EB0A10316850
:1008D0008900B0FBF1F86420B8FBF0F004012009B6
:1008E000642101FB1089A88900F4004040B1322046
:1008F00000EBC900B0FBF1F000F00700044308E092
:10090000322000EB09106421B0FBF1F000F00F0081
:1009100004432C8106B0BDE8F08700000038014098
:10092000C1F308028280704700BFFEE7014A024916
:1009300000F013B8B90900089800002002E008C8C8
:10094000121F08C1002AFAD170477047002001E049
:1009500001C1121F002AFBD170472DE9F041164654
:100960000F460446002503E03946B047641C6D1C61
:1009700020780028F8D12846BDE8F0810121012027
:10098000094A12680AB100200CE0084A12680AB14C
:10099000002007E0064A1368064A1268521E934276
:1009A00000D1022070470000442B0020740000207A
:1009B0006C2B00206000002070B504460D46E1B2AB
:1009C0000548FFF7ADFF00BF80210348FFF70AFF8E
:1009D0000028F9D0204670BD003801401CB5FFF753
:1009E000B9FEFFF7D3FC0748022100230A02CDE934
:1009F000001005A1074800F06BFD00F0C3FC00BF2C
:100A0000FEE7000094000020537461727454617317
:100A10006B0000005106000808E005A0FFF786FF04
:100A2000FFF79EFC4FF4FA7000F02CFCF5E7000095
:100A3000313131310000000006E004A0FFF776FFFD
:100A40004FF4FA7000F01EFCF7E700003232323249
:100A5000000000002DE9F04105460E461C480768DD
:100A60001C480068001D00F0A9FA50B91948006838
:100A700090F82C10012088401749096881431648D6
:100A80000160681C38B936B112480168091D134865
:100A900000F0D2FA1AE07C190E4800684460BC42AB
:100AA00007D20C480168091D0D48006800F0AAFA39
:100AB0000CE008480168091D0A48006800F0A2FA25
:100AC00009480068844201D207480460BDE8F0810B
:100AD0006400002050000020680000206C2B0020E3
:100AE00058000020540000208000002010B504466B
:100AF00000F0AEFA23480068401C224908602248F2
:100B0000006840B9204804600846006801280DD1FB
:100B100000F04CF90AE01D48006838B91A4800682E
:100B2000C06AE16A884201D8174804601848006822
:100B3000401C1749086094F82C1001208840154982
:100B40000968084313490860E16A01EB8101124A10
:100B500002EB8100211D00F06FFA00F08BFA0B48C8
:100B6000006868B108480068C06AE16A884207D234
:100B70004FF0805009490860BFF34F8FBFF36F8F6C
:100B800010BD000060000020500000206C0000201C
:100B90007C000020680000209C28002004ED00E07C
:100BA00070B523E000F028FC1348006808B9012064
:100BB00000E00020054600F059FDBDB900F048FAFC
:100BC0000D48C068C468201D00F0F8F90B480068A3
:100BD000401E0A4908600A480068401E084908602B
:100BE00000F048FA204600F00DF800BF0448006805
:100BF0000028D7D170BD0000582B002060000020D5
:100C00005C00002010B50446206B00F043FA20463B
:100C100000F040FA10BD0000002101220C4B1B68BF
:100C2000012B00D901210B4A1268D26A0AB10020B7
:100C30000DE0094A1268012A01D9002007E009B134
:100C4000002004E0054A1268054B1B68D01A704763
:100C500068000020500000209C2800208000002018
:100C60006400002030B54FF42053174800F007040B
:100C70002CB1C01D20F00700134C041B1B1B0246A7
:100C8000124C22600024114D6C60D018083820F0FE
:100C900007000F4C206000240D4D2D686C600C4D3A
:100CA0002D682C601146441A4C60094C24680C6075
:100CB000084D4C682C60084D4C682C604FF0004487
:100CC000064D2C6030BD00009C0000202800002054
:100CD0003000002038000020340000203C000020BC
:100CE00000BFFFF75DFF0F480068012807D94FF0EC
:100CF00080500D490860BFF34F8FBFF36F8FFFF730
:100D00008BFF0446022C0BD300F076FBFFF784FF29
:100D10000446022C02D3204600F00EFA00F0A6FC96
:100D2000DFE700009C28002004ED00E02DE9FF5FD4
:100D300080460E469146DDE90E7A109CA9F101002D
:100D4000216B01EB800B2BF0070B002507E0715D99
:100D500004F134004155705D00B902E06D1C102DA6
:100D6000F5D300BF002143200155202F00D31F27BA
:100D7000E762201D00F043F904F1180000F03FF98C
:100D80002461C7F12000A06164620020606484F8DF
:100D9000480041465846039A00F0FEF82060BAF138
:100DA000000F01D0CAF80040BDE8FF9F10B5002435
:100DB00007E004EB84010F4A02EB810000F012F916
:100DC000641C202CF5D30C4800F00CF90B4800F003
:100DD00009F90B4800F006F90A4800F003F90A483F
:100DE00000F000F90448094908600448084908600F
:100DF00010BD00009C2800201C2B0020302B002060
:100E0000442B0020582B00206C2B00205400002085
:100E10005800002010B50146164800E0006803683D
:100E20008B42FBD30246436813448B4204D1436890
:100E30004C682344436001460A464B6813440468E7
:100E4000A34211D10C4C03682468A34208D04B681C
:100E50000468646823444B6003681B680B6005E00A
:100E6000054B1B680B6001E003680B60884200D0F3
:100E7000016010BD28000020300000200A490968E8
:100E8000096809B9012100E0002121B14FF0FF31CB
:100E9000064A116006E004490968C968C868034A3F
:100EA000416811607047000054000020800000205D
:100EB00000BF502080F31188BFF34F8FBFF36F8FB7
:100EC00000BF00BFFEE700002DE9F04105464FF0EE
:100ED000000800F091FA2B48006808B9FFF7C2FE3D
:100EE000294800682840002847D145B1083505F059
:100EF000070020B105F00700C0F108000544002DEF
:100F00003BD022480068854237D8214E30460468DD
:100F100001E0264624686068A84202D220680028C2
:100F2000F7D118480068844227D0306800F10808DB
:100F3000206830606068401B102807D96719606816
:100F4000401B786065603846FFF764FF0F496068B2
:100F50000968081A0D490860084600680D490968C3
:100F6000884203D2094800680A4908600649606857
:100F70000968084360600020206000F077FB40466D
:100F8000BDE8F081300000203C000020340000204B
:100F90002800002038000020001F4FF080730360FD
:100FA000001F21F001030360001F034B036014388E
:100FB0000260203870470000B10E000801460A693F
:100FC000D1E901309860D1E9010358605068884246
:100FD00001D188685060002008611068401E1060D0
:100FE0001068704700F1080141604FF0FF318160E7
:100FF00000F10801C160016100210160704700211A
:101000000161704710B502460B685C1C0CB9106991
:1010100007E002F1080000E04068446824689C4250
:10102000FAD944684C604C68A160886041600A61EC
:101030001468641C146010BD42684A6093688B6039
:10104000936859609160086103685B1C0360704796
:1010500000BF502080F31188BFF34F8FBFF36F8F15
:1010600000BF03480068401C014908607047000049
:101070004000002006480068401E054908600846F8
:10108000006820B9002080F3118800BF00BF7047BE
:101090004000002070B506463546D6B1083D2C46C6
:1010A0000C4960680968084098B1206888B9094906
:1010B000606809688843606000F09EF906496068CE
:1010C00009680844044908602046FFF7A3FE00F0C1
:1010D000CDFA70BD3C0000203400002012480068AA
:1010E0004FF47A71B0FBF1F01049086008460068CF
:1010F0006FF07F41B1FBF0F00D4908600A480068CD
:10110000B0FBF0F02D21B1FBF0F00A490860064871
:1011100000684FF47A71B0FBF1F0401E4FF0E0210F
:10112000486107200861704700000020440000204B
:10113000480000204C0000202DE9F04704464E48AE
:101140000068844201D94C4804684FF0E0200069EF
:1011500020F001004FF0E021086108468169601E1F
:10116000464A126802FB001545480068854202D9CC
:10117000434800682D1A72B6BFF34F8FBFF36F8FCD
:10118000FFF7FCFB80B94FF0E02080694FF0E021D1
:1011900048610846006940F001000861374800686E
:1011A000401E486162B665E04FF0E02045610020D6
:1011B0004FF0E02188610846006940F001000861B5
:1011C000A146B9F1000404D0BFF34F8F30BFBFF385
:1011D0006F8F4FF0E020D0F8108028F001004FF022
:1011E000E021086162B608F48030B8B1234909688B
:1011F000491E4FF0E0229269AA1A881A204909680C
:10120000884203D31D490968884202D91B490968ED
:10121000481E4FF0E0214861661E12E01748006842
:1012200060434FF0E0218969471A14480068B7FB12
:10123000F0F6701C114909684843C01B4FF0E021CB
:10124000486100204FF0E0218861FFF701FF4FF077
:10125000E020006940F001004FF0E02108613046D5
:1012600000F0C2F805480068401E4FF0E0214861D8
:10127000FFF700FFBDE8F087480000204400002091
:101280004C00002070B50446002544B100F0B4F8CD
:1012900000212046FFF7DEFB00F0E8F905463DB9E6
:1012A0004FF0805003490860BFF34F8FBFF36F8F3B
:1012B00070BD000004ED00E070B50546FFF7C8FE04
:1012C00015B92748006800E028460446201DFFF7AE
:1012D00075FE78B9E06A00EB8000224951F82000E1
:1012E00040B994F82C10012088401F4909688143B7
:1012F0001D480160A06A18B104F11800FFF75EFEF6
:101300001A480068401C1949086015480068844262
:1013100009D1211D1648FFF78FFE16480068401CB2
:101320001449086009E014480068401E124908602A
:101330002046FFF767FCFFF7A1FDFFF79BFE0F4874
:10134000006858B106480068844207D14FF08050C9
:101350000B490860BFF34F8FBFF36F8F70BD000064
:10136000500000209C280020680000207C00002005
:10137000582B00205C000020600000206C00002042
:1013800004ED00E01CB5114800210B468022CDE998
:1013900000100FA1104800F09BF80446012C14D156
:1013A00000BF502080F31188BFF34F8FBFF36F8FC2
:1013B00000BF4FF0FF30094908600120084908606C
:1013C00000200849086000F04FF81CBD8400002090
:1013D00049444C4500000000E10C0008800000205A
:1013E0006C00002064000020024909680144014AA1
:1013F000116070476400002002480068401C0149E9
:1014000008607047880000201248006818B1012069
:10141000114908601DE000200F4908600F4800686E
:10142000B0FA80F0C0F11F0101EB81020C4B03EB1D
:10143000820042685268426000F1080243689342A9
:1014400002D14268526842604268D268054B1A6015
:1014500000BF704788000020740000206800002052
:101460009C2800205000002010B50A48006840F475
:101470007000084908600846006840F07040086045
:10148000FFF72CFE002004490860FEF76DFE0020E7
:1014900010BD000020ED00E04000002010B500BFAE
:1014A000502080F31188BFF34F8FBFF36F8F00BFC1
:1014B00000F04EF818B14FF080500449086000BFAA
:1014C000002080F3118800BF10BD000004ED00E093
:1014D0002DE9FF4F85B0804689461746DDE912ABFE
:1014E000B800FFF7F1FC064656B14C20FFF7ECFCC4
:1014F00004460CB1266304E03046FFF7CBFD00E064
:1015000000247CB10020CDE900ABCDE902403A4691
:1015100049464046089BFFF709FC2046FFF7E6FADC
:10152000012501E04FF0FF35284609B0BDE8F08FF6
:101530000549096809B9012005E00449096809B9A4
:10154000022000E0002070476C000020880000208E
:101550002DE9F04100273A480068002863D1394856
:101560000068451C374805608DB93748D0F80080C1
:1015700036480068344908603448C0F80080344870
:101580000068401C32490860FFF778FC00BF314812
:10159000006885423BD300BF2B480068006808B94B
:1015A000012000E0002020B14FF0FF302949086001
:1015B0002CE025480068C068C4686668B54202D25D
:1015C0002448066022E0201DFFF7F8FCA06A18B14D
:1015D00004F11800FFF7F2FC94F82C100120884069
:1015E0001D49096808431C490860E16A01EB810153
:1015F0001A4A02EB8100211DFFF71EFD1849E06A1F
:101600000968C96A8842C7D30127C5E700BF1448E3
:101610000068C06A00EB8000104951F820000128E2
:1016200000D9012704E00F480068401C0D490860FC
:101630000D48006800B101273846BDE8F081000080
:101640008800002064000020540000205800002082
:101650007800002080000020680000209C280020E6
:1016600050000020700000207400002070B500249D
:101670000026FFF7EDFC2E480068401E2C4908604C
:101680000846006800284FD12A48006800284BD03F
:1016900024E02948C068C46804F11800FFF78EFCF4
:1016A000201DFFF78BFC94F82C1001208840234963
:1016B0000968084321490860E16A01EB8101204A79
:1016C00002EB8100211DFFF7B7FC1E49E06A0968A3
:1016D000C96A884202D301201B4908601648006885
:1016E00008B9012000E000200028D2D00CB1FFF79B
:1016F000C5FB1648056865B100BFFFF729FF10B1AB
:101700000120114908606D1E002DF6D100200F49FF
:1017100008600D48006838B1012630070C490860A0
:10172000BFF34F8FBFF36F8FFFF7A4FC304670BD40
:101730008800002060000020442B0020680000206A
:101740009C28002050000020740000207000002021
:1017500004ED00E074170008000000209C00000069
:101760003C090008101800089C000020E42E00002E
:101770004C09000800A24A0400000000000000001C
:101780000102030406070809000000000102030427
:10179000010203040607080902040608000000000D
:1017A0000000000000000000000000000000000039
:1017B00000000000AAAAAAAA000000000000000081
:1017C0000000000000000000000000000000000019
:1017D0000000000000000000000000000000000009
:1017E00000000000000000000000000000000000F9
:1017F00000000000000000000000000000000000E9
:1018000000000000000000000000000000000000D8
:0400000508000131BD
:00000001FF
